:10800000B8C600207DB40000957D010051B4000089
:1080100051B4000051B4000051B4000051B400004C
:1080200000000000000000000000000015AD00008E
:1080300051B4000000000000A5AC000051B40000E5
:10804000A9AD0000A9AD0000A9AD0000A9AD0000D8
:10805000A9AD0000A9AD0000A9AD0000A9AD0000C8
:10806000A9AD0000A9AD0000A9AD0000A9AD0000B8
:10807000A9AD0000A9AD0000A9AD0000A9AD0000A8
:10808000A9AD0000A9AD0000A9AD0000A9AD000098
:10809000A9AD0000A9AD0000A9AD0000A9AD000088
:1080A000A9AD0000A9AD0000A9AD0000A9AD000078
:1080B000A9AD0000A9AD0000A9AD0000A9AD000068
:1080C000A9AD0000A9AD0000A9AD0000A9AD000058
:1080D000A9AD0000A9AD0000A9AD0000A9AD000048
:1080E000A9AD0000A9AD0000A9AD0000A9AD000038
:1080F000A9AD0000A9AD0000A9AD0000A9AD000028
:10810000A9AD0000A9AD0000A9AD0000A9AD000017
:10811000A9AD0000A9AD0000A9AD0000A9AD000007
:10812000A9AD0000A9AD0000A9AD0000A9AD0000F7
:10813000A9AD0000A9AD0000A9AD0000A9AD0000E7
:10814000A9AD0000A9AD0000A9AD0000A9AD0000D7
:04815000A9AD0000D5
:1081540053B94AB9002908BF00281CBF4FF0FF31AA
:108164004FF0FF3000F00CB8ADF1080C6DE904CE0F
:1081740000F008F8DDF804E0DDE9022304B07047FC
:10818400704700BF2DE9F04786468C460846089E96
:10819400154674461946002B40F0C1808542B2FA58
:1081A40082F245D94AB1C2F1200300FA02FC95409B
:1081B40094402EFA03F343EA0C0C4FEA154EA8B28E
:1081C400230CBCFBFEF80EFB18CC08FB00F943EAB9
:1081D4000C43994528D9EB1808F1FF3704D2994587
:1081E40002D9A8F102072B44A3EB0903A4B2B3FB01
:1081F400FEFC0EFB1C330CFB00F044EA0344A042DB
:1082040014D92C190CF1FF3304D2A04202D9ACF1D9
:1082140002032C44241A43EA07401EB1D44000232D
:1082240034607360BDE8F0874746DDE76346F1E7F5
:1082340092BB431B01214FEA154EAFB2200CB3FB96
:10824400FEFC0EFB1C330CFB07F840EA0343984585
:1082540061D9EB180CF1FF3004D2984502D9ACF186
:1082640002002B44A3EB0803A4B2B3FBFEFC0EFBF9
:108274001C330CFB07F744EA0344A7424DD92C19DD
:108284000CF1FF3304D2A74202D9ACF102032C440F
:10829400E41B43EA0040C0E7C2F120039540944048
:1082A40020FA03F12EFA03F34FEA154E9040AFB2D1
:1082B4000343B1FBFEFC0EFB1C10190C0CFB07F86E
:1082C40041EA0041884522D969180CF1FF3004D2F3
:1082D400884502D9ACF102002944A1EB08019BB204
:1082E400B1FBFEFC0EFB1C110CFB07F743EA014338
:1082F4009F420ED9EB180CF1FF3104D29F4202D9F0
:10830400ACF102012B44DB1B41EA004193E76046D8
:10831400E3E76146F7E76046A4E76346B8E78342CC
:1083240006D916B9002108467CE7C6E900E0F9E75A
:10833400B3FA83F78FB9834201D3724508D8BEEBF1
:10834400020460EB030301209C461EB9002169E787
:108354003846FAE7C6E9004CF8E7C7F1200CBB4001
:108364000EFA07F522FA0CF42EFA0CF1BA401C436B
:1083740020FA0CF3B8404FEA144901431FFA84FE73
:10838400B3FBF9F809FB18300B0C08FB0EFA43EAAF
:1083940000439A4540D9E31808F1FF3004D29A45C6
:1083A40002D9A8F102002344A3EB0A0389B2B3FB68
:1083B400F9F809FB183308FB0EFE41EA03418E4528
:1083C4002CD9611808F1FF3304D28E4502D9A8F1E3
:1083D4000203214443EA0040A1EB0E01A0FB0298F2
:1083E4004145CE46434602D306D14D4504D2013819
:1083F400B9EB020E68EB0403002EA7D0B5EB0E0216
:1084040061EB030101FA0CFC22FA07F3F9404CEA90
:108414000303C6E9003199E74046C5E74346D9E777
:1084240010F8012B11F8013B012A28BF9A42F7D01A
:10843400D01A7047034611F8012B03F8012B002AC8
:10844400F9D17047034613F8012B002AFBD1181AFF
:108454000138704708B504480DF066FFBDE80840D0
:10846400012011F052BA00BF34BF010008B521B198
:10847400BDE8084005480DF057BF05480DF054FF0E
:10848400BDE80840012011F03DBA00BF4EBF010015
:108494006ABF01002DE9F04B2B4E2C4C2C4D86B0BD
:1084A40004A800F0E7F93369BDF81090BDF8128014
:1084B400BDF814700193B36823485B6803A9984717
:1084C400B0F1000B0AD031DB21682846042936DCE0
:1084D4000DF02AFF23680133236005E0019B1A682D
:1084E400039B53401B02EFD4484600F075F94946FC
:1084F40018480DF019FF404600F06EF94146164841
:108504000DF012FF384600F067F9394613480DF0B4
:108514000BFF206800F060F9284621680DF004FF85
:1085240000214FF480400DF0EFF8B9E728462168A8
:108534000DF0FAFE59460A480DF0F6FED4E70DF0A8
:10854400F3FE0123C8E700BF7CB20100509700206E
:1085540075BF0100A2BF0100AABF010023C1010031
:1085640082BF01002DE9F04389B06D4602AF4FF0A0
:108574000208584BC7F810807B6100234FF48651E2
:10858400554807F1100201F011FE0AF011FD90B1F7
:1085940088B002AA514BC2E90530032342F8103FC8
:1085A40000234FF4C2514C4801F000FEAD461C3785
:1085B400BD46BDE8F0834A4E304611F0BDFF50B9C8
:1085C400316848480DF0B0FE6FF012042146464869
:1085D4000DF0AAFEEBE73269B1681368304643F444
:1085E400000313600B68414A17219847044630B1D1
:1085F4000146172332683E480DF096FEE6E705F083
:108604004FF818B188B002AA3A4BC4E73A4806F0CA
:1086140085FB3A4800F0D6F810B101463848D7E750
:10862400384BC7E904834FF48651034607F110021F
:10863400294801F0BBFD0123424600933249334BE4
:10864400334805F025FD044628B188B002AA314B11
:10865400C2E90530A1E7304BC7E90483DFF8BC90D9
:10866400DFF8748003464FF486511B4807F110026B
:1086740001F09CFD013404F0010100200AF0C2FC69
:1086840000214FF400400DF03FF800F0C5F8054616
:1086940018B123480DF048FE89E7384600F0EAF89F
:1086A4006E468AB038887988BB8802AAC2E9071363
:1086B4000523C2E9059042F8103F4FF423512B469D
:1086C400404601F073FDB54600214FF400400DF023
:1086D4001BF8CFE7B2BF010098B50100D3BF01007A
:1086E4007CB20100EEBF01003DC001001100010099
:1086F40014C001005AC00100088200201C8200201E
:108704007AC0010097C0010040B7010038B70100EA
:1087140024820020AEC00100D4C0010011C10100B8
:10872400F6C001008B1E59425941014B1970704724
:10873400559B00204B1E59425941014B19707047FB
:10874400569B002008B5012BBDF808100CD171B957
:108754000A4B1B680BB9012008BD1078012809D801
:1087640000F001009847F6E76FF00C00F4E76FF0B3
:108774000600F1E76FF01200EEE700BF5497002007
:108784002DE9FF411F460D4B054658680C46164619
:1087940080B1D1F80C808047094B32461870012310
:1087A400CDE90183BDF828302146009328463B4695
:1087B40010F087FC04B0BDE8F08100BF549700209E
:1087C400549B002020B1034B02681A6042685A602F
:1087D400002070475497002000B50D4B89B01B78DA
:1087E400019093B10021182202A812F0B3FC094BA6
:1087F4000020039301AB0493042302A9ADF81430C1
:1088040008F06EFC09B05DF804FB6FF00C00F9E7AA
:10881400569B0020DCB7010038B50025124C54F8F3
:10882400060C11F089FE28B910480DF07DFD4FF0BB
:10883400FF3038BD14F8013C63B154F8060C83686A
:1088440021461B689847021E07DA294608480DF09E
:108854006BFDECE76FF08502F7E70135032D04F1BA
:108864001404DCD10020E4E70AB8010059C1010076
:108874007AC101002DE9F04F142200268BB0314655
:1088840007460DEB020012F065FC0DF10E03079391
:10889400022337480893B146B0460DF045FD3546EE
:1088A400B2464FF0140B334C637953B10122237950
:1088B40002FA03F30693237C8DF82430637C8DF84D
:1088C40025302068836805A95B689847011E10DA83
:1088D40029480DF029FD0135032D04F11404E3D1D9
:1088E4003846A7F800907E80A7F804800BB0BDE856
:1088F400F08F45B9D1466279BDF90E3042B91F48AF
:108904000DF012FDE7E7012D0CBF5646D046F2E705
:10891400E2791848042A08BF22680BFB05000ABF45
:108924009268E1891189807A5943227C800644BF88
:1089340002F1FF32D2B20491A07904A9009301920A
:1089440008F020FE0028009B08D1049B019A1341E3
:108954009BB22DB9994601251434A5E7CFDBF7E77F
:10896400012D03D11E46022514349DE79846B7E72E
:108974009CC1010004B80100AAC10100BFC10100EB
:108984002DE9F04F91B0009302F004030293C2F377
:10899400C2030133840705460E46DDF8689003924E
:1089A400059340F0BB81041D30B1072909D86FF04D
:1089B4001B0011B0BDE8F08F01F00706341DC6F1AD
:1089C4000806009B4FF000084FF0040A591E4FF0B0
:1089D400FF3347460193C3465346CDF810800DB18B
:1089E400009A22600598002800F3E8809848009ACD
:1089F400824203D397488242C0F0E080039AA4EBFA
:108A0400050E92074FEA9E0000F103810F2F00F23A
:108A1400B180002D00F0058107F140020DEB020C3E
:108A2400019A0CF8200C0CF8102C049801300490D6
:108A3400E7E07A285DD84B280ED8472859D829284A
:108A44002DD8252852D054D820287AD02338D0F1D4
:108A5400000B4BEB000B74E04C382E2849D8DFE8B0
:108A640000F07048484848484848484848484B48F7
:108A74004848484848484859484B4B595959704BFD
:108A84006D487048184B184848827F4B48484B48FB
:108A94007F0000204FF0000B4FF0040A38E0012261
:108AA4002A38C0B202FA00F010EA0E0F49D110F0D1
:108AB400625C2FD110EA020B43D06046013C54445F
:108AC400B4FBFAF40AFB04F4002D61D0A3EB050C0B
:108AD400A4446645FFF46BAF002868D1042B47D14A
:108AE40059F8043B2360042304342AE0019A013A30
:108AF40001924FF0000B24E011F8010C6C2834D1E2
:108B0400002011F8023C83466C2BC5D14FF0080AB3
:108B14005346D3E709F1070929F00709073424F07C
:108B24000704F9E802AB35B106982044B0423FF699
:108B34003EAFC4E900AB4FF0000B08344FF0080A15
:108B4400534611F8010F002878D0BBF1000F7FF4D1
:108B540070AF2528F5D14FF0010B019B0133019330
:108B64004FF0040AECE7584694E700208346A5E753
:108B7400082B02D06FF015001BE709F1070929F053
:108B84000709F9E80223C4E9002308230834D8E7D5
:108B940068B9042B02D109F10409A4E7082BE9D12F
:108BA40009F1070929F0070909F10809EDE7059A10
:108BB400013A059259F8042B009210E7039A9007A2
:108BC40020D54FF0010CA4EB050E4FEA9E00BEF534
:108BD400007FCFD20F2FCDD8F5B107F140020DEBB6
:108BE400020E019AC0B20EF8200C0EF8102CBCF143
:108BF400000F3FF41AAF60F07F000EF8200C08F16C
:108C040001080137C5F108024FF6DA7E04340692F2
:108C140097E74FF0000CDAE7BCF1000F01D0013602
:108C2400EFE7029802360028EBD10098CDE906312F
:108C3400FFF708FCDDE906310644E2E7631BB3F500
:108C4400806F97D245B9A6F10804E018B1E600BFD9
:108C54008CB10100C8E50100029A9B0828602B70C2
:108C64009DF81030C2B1EB7085F80280B8F1000FA6
:108C740005D0002208A8C5F1010C97420ED14FF08F
:108C8400000AC5F101030DF1200901930DF1300B28
:108C9400574512D1601B8CE66B70E5E710F8013B79
:108CA400190608D504EB0C0E764503F07F03FFF498
:108CB4007EAE04F8013B0132DFE7B8F1000F03D0C8
:108CC40099F90020002A17DB029BD3B11AF80B2074
:108CD40004F8012B0022019B981820448642FFF4DB
:108CE40066AE99F80000009904F8010B204603923F
:108CF40012F023FA039A14440AF1010A09F1010952
:108D0400C6E799F8002055F822300093029B00989A
:108D140045F82230FFF796FB421CDCE76FF00D00AC
:108D240047E600BF2DE9F04F95B000AFBB61BB6FC4
:108D34000446C3F3C0038A4690F802B07A623B61EA
:108D440041B9457800780BEB80002044554517D88D
:108D5400A0EB040AE3787B61BBF1000F02D0BB6F88
:108D6400D80716D47B6953BB7B6A1BB15146204696
:108D7400BA699847554628465437BD46BDE8F08F32
:108D8400461C3046FFF75EFB013030440AF1010A0D
:108D9400DCE7237862683B629B00FB603B6AFA6114
:108DA40004EB83097B6A002B40F0FF80C846002651
:108DB400554609EB0B0AD04551D1D94413E0BB6F9A
:108DC4009907D1D5237899463B629B00FB60636881
:108DD40004EB8909FB617B6A002B7AD15546BBF110
:108DE400000F4FD15E46BB6F13F0050F0CBF4FF061
:108DF400020B4FF0010B7B6909EB430ABB6F03F0D5
:108E040002037B62D145B6D019F8021B19F8013C64
:108E140054F82380AB4B984502D3AB4B984538D3D9
:108E24003B69002B42D0F8690DF055FA00283DD07B
:108E3400E8468AB06A46A54B5361FB69C2E906312C
:108E44004FF400731384A24B42F8103F00234FF4F5
:108E54001251A04801F0AAF9023DC546D2E718F81C
:108E6400013B54F82300FFF7EDFAFB6F01303BB1EF
:108E7400D7F880309E423EBFFB6F23F816000136C0
:108E8400054498E7BB6F13F004061CBF7E6AD944FF
:108E9400A9E73B6923B1F8690DF01DFA0028C7D191
:108EA400BB6FDA0705D4A5EB0B05ABE77B6A002B98
:108EB400A8D04046FFF7C6FAFB6F43B1D7F880301D
:108EC4009E423FBFFA6F431C22F816300136054418
:108ED40098E7BBF1000F6ED0BB6F13F004066DD0A2
:108EE400D846002607F140005A46494612F025F9B3
:108EF4007B69D9445B007B607B6909EB4303BB60FE
:108F0400BB6F03F002033B60BB684B4558D1B96F9C
:108F14006378B86F890748BF002106EB030258BF86
:108F24004FEA5801C507D2B200F19A8010F0040F3D
:108F340014BF40460020FB616270A070E1702046BF
:108F4400BA69F9687B6A9847051EFFF614AF3B6A55
:108F540041462370FB69BA6963707B6984F802B087
:108F6400E37007F140007B6A9847B0F10008C0F253
:108F7400A480FB68AAEB0B01C91A7B684846C91A8E
:108F8400BA697B6A98470028C0F299804FF0000BB9
:108F9400A84408EB000507F1300AB34562D3002169
:108FA400BA6908467B6A9847E5E65E464FF00008D2
:108FB40007F1300098E75E46D84699E7B04697E750
:108FC40019F8021B3F4B19F8015C54F8250098422C
:108FD40002D33D4B98421DD33B6923B1F8690DF090
:108FE4007AF9002890D13B68FBB908F1280307F10E
:108FF400280208F1010003EB020C07F1500308F109
:10900400020853FA80F00CF8101C5FFA88F800F894
:10901400105C79E73B692BB1F8690DF05CF9002825
:109024007FF472AFBB6FDB0709D506F1280307F1A4
:109034002802711C9E1806F8205CCEB264E7BB6F50
:1090440058077FF561AF08F1280307F1280208F1FA
:10905400010103EB020808F8105C5FFA81F853E79A
:10906400002068E71BF80A3054F8239087F82F3063
:10907400FB6FFBB133F81B800121BA697B6A07F1EE
:109084002F00984700281ADB0544B8F1000F06D1D9
:109094004846FFF7D7F900F101081FFA88F841465E
:1090A4004846BA697B6A9847002808DB05440BF1F7
:1090B400010B72E7D7F87C80DEE745465BE60546A0
:1090C40059E600BF8CB10100C8E50100DDC1010013
:1090D4000400000118B60100014B1860704700BF7E
:1090E4008082002080B505460E46174698460CF04F
:1090F40025FB034612F03EF80446DFF8189042467A
:1091040049F8003039463046A84754F8090002F0BF
:109114002DFA00BF080000002DE9F047058B044636
:109124002807904611D4022905F0070540F0CD80A8
:1091340020460DF0B3FB78B10138218B042811D8F7
:10914400DFE800F0C3106D85950001290CBF45F0E0
:10915400100545F02005258388F31188BFF36F8F30
:10916400BDE8F08701F0070AAA4500F0A6800027B1
:10917400B9463E46A368002B00F0BD8041F00801CB
:10918400218388F31188BFF36F8FA168002900F051
:10919400BB800D68002900F0B78033465246204654
:1091A400D1F80480C047002D76D02B6829461D468F
:1091B400F0E701F007035A1F012A1BD8002221F00F
:1091C4000701062B276889B2C4E9002209D13B466E
:1091D40003E0628B013262831B68002BF9D141F0FA
:1091E4000201204621830DF059FB00287BD041F079
:1091F400200177E0042B0AD121F0070189B220462F
:1092040021830DF04BFB10B141F020012183218B10
:1092140001F0070AAA4550D00027B946AAE72369F6
:1092240021F0070141F00601062DD3F800902183B7
:109234002DD1B9F1000F40D041F00801218388F30A
:109244001188BFF36F8F20463949C84729E021F0C0
:109254000701236941F0040189B2042DD3F8049075
:109264002183E6D000274FF0040A3E4682E721F02E
:109274000701236941F0050189B2052DD3F808904F
:109284002183D6D000274FF0050A3E4672E7002717
:109294004FF0060A3E466DE72B4687E7B9F1000F0B
:1092A400D1D14FF02003EFF3118883F31288BFF379
:1092B4006F8F238B23F008032383258BEA062ED597
:1092C40025F01003238305F007056669218B002E22
:1092D400BFF66FAF00232768C4E9003321F007010C
:1092E40041F001012183218B4FF0000901F0070AAD
:1092F400AA457FF43FAF002F9BD041F008012183A2
:1093040088F31188BFF36F8F002FC7D03D683946AB
:109314003346524620460DF0EDFA2F46F4E7AB06ED
:109324007FF51AAF25F02003238305F00705FFE638
:109334002569010007B50DF1070010F023FB114B5F
:1093440098421CD14FF480620F4B1049C3F8B825E2
:109354004FF40062C3F83C259DF8070010F0FEFAB4
:109364000B499DF8070010F0F4FA01209DF807302E
:10937400984009F05FFF002003B05DF804FB6FF034
:109384000B00F9E70000AD0B00A002402CA0024046
:1093940028A10240052370B5144D154E2C780134D4
:1093A400B4FBF3F303EB8303E41A10F07FFA114ADE
:1093B400137823B156F82430C01A072813D90E4B5A
:1093C400D3F8141141B10021C3F81411D3F81431A6
:1093D4002C700CB9012313702C7810F067FA46F83E
:1093E4002400012070BD0020FCE700BF589B002032
:1093F4005C970020579B00200050004048B1054B6B
:10940400054A1B68B3FBF2F35843044B43F00103D2
:1094140018477047CC83002040420F0030B701004A
:1094240070B5049CC4F30726304609F08FFBE5B2FF
:109434000146284610F09EFA00220120074BA40B97
:1094440004F0FC041A51A84009F0FAFE304609F071
:1094540031FD2846BDE870400AF080B880A0024083
:10946400F0B583B000AF381D0AF072F8284B98426B
:109474004BD109F001FD041E13DA38790AF06EF8B5
:109484006D4688B06A46234BC2E90534032342F88B
:10949400103F00234FF4C2511F4800F087FEAD4631
:1094A4002FE040F607031D4D7C71AE68FB807468A5
:1094B4007B6814B96FF05704E2E708212846184A7C
:1094C400A047041EDCDB3369002BF3D00122082102
:1094D40028469847041ED3DB01203B79984009F0C5
:1094E400A9FE78793D79FE7910F0CBF9014628463A
:1094F40010F034FA0B4BB60045F000459D51002C9A
:10950400BED120460C37BD46F0BD6FF01204B7E75C
:109514000000AD0B95C2010090B60100CCB2010071
:109524002D95000080A102402DE9F3411446836883
:109534001B690BB100229847C4F30726304609F093
:109544000DFB0546304610F09CF94FF00008E7B2D9
:109554000146384610F012FA104B220E920043F8DE
:109564000280304609F0F2FA0D4A4FEA943C0CF0BE
:10957400FC0C47F0004342F80C300146384610F02A
:10958400E8F9084B05F13202009330464346019452
:10959400520010F07FF902B0BDE8F08180A10240D2
:1095A40080A002402594000010F0CFB97FB570B9B7
:1095B400124B1348059302234FF4825104AA0493D7
:1095C4000DF0DEFC6FF0150007B05DF804FB836856
:1095D40063B90C4B0A48059302234FF4825104AA41
:1095E40004930DF0CDFC6FF00400EDE71B681BB194
:1095F40007B05DF804EB18471846E5E7C6C201005A
:1096040038B60100D7C2010030B587B008B101B146
:109614006AB9134B1348059302234FF4825104AAE9
:1096240004930DF0ADFC6FF0150007B030BD8468F5
:109634000CB1E56865B90C4B0A48059302234FF455
:10964400825104AA04930DF09BFC6FF00400ECE734
:1096540041F8040BE36807B0BDE83040184700BF89
:10966400F5C2010038B60100D7C2010030B5134677
:10967400044687B068B91A4B1A48059302234FF47D
:10968400825104AA04930DF07BFC6FF0150007B01F
:1096940030BD006860B9144B1248059302234FF49F
:1096A400825104AA04930DF06BFC6FF00100EEE705
:1096B40082680AB1956865B90C4B0A480593022380
:1096C4004FF4825104AA04930DF05AFC6FF0040085
:1096D400DDE70A46AC46616807B0BDE83040604744
:1096E40021C3010038B6010032C30100D7C2010012
:1096F4000020014B186070470000072030B50C466D
:109704000E4985B00291D0F8AC110546CDE900317F
:1097140000F1E0014FF0FF3320460AF045FD50B957
:10972400012384F86430D5F8A83123B1204605B06C
:10973400BDE83040184705B030BD00BF7B70010064
:1097440038B50C46114605460DF097FC034638B96A
:10975400284604490DF091FC03460020236038BDDF
:109764000120FBE7B5E301002DE9F04F0123814619
:109774000569466885B005F55B77D7E8EF2F002AC1
:1097840003D1C7E8E13F0029F7D10CBF1A460022F4
:1097940040F0B180B368B16A05F5E4781C1F104647
:1097A4000DF0F0FC84425FD8013A00F09E80B2FADA
:1097B40082F24FF00044D44072682046073222F00F
:1097C4000302C5F86022B16A0DF0DCFCC5F864023E
:1097D400B36A40466343033323F0030302EB4302BB
:1097E400230103EB4403093323F0030303EBC40312
:1097F400C5F858221A440832C5F854227368C5F8CB
:109804005C42C5F850323D4BC5E9A963316800F0AC
:10981400BDF9044630BBD9F804A0D9F81090DAE9B0
:10982400073409F5307B012B584608BF103C11F072
:10983400B6F80023DAF8240031494FF4806201EBD2
:1098440080210093584623460BF0C2FB09F52C7087
:109854002C4911F066F8DAF8140083685C682CB9B6
:109864006FF05704002139E0013298E74B46264A4D
:10987400DAF81810A04704460028F3D1DAF81400E7
:1098840083681B69002BEBD00122DAF81810984783
:1098940004460028E6D11D4B2846C5F8A8311C4BC8
:1098A400C5F8AC311B4B0393D5F810320293D5F8AD
:1098B4000832CDE90083D5F86832B26AD5F8681366
:1098C40000F02CF904460028CCD105F1E0000AF0A0
:1098D40019FD0028C5F870030ADB022138460DF093
:1098E40001FC204605B0BDE8F08F6FF00B04B9E72A
:1098F4006FF01504B6E76FF07704F2E7D17001005A
:1099040008A00020B7700100AB7001001D99000091
:109914005F7201001971010013B5044640B10023C0
:109924000122CDE90032074BD0E909120AF0F0FB1D
:10993400A36E1B6823B1E06E02B0BDE81040184767
:1099440002B010BDB5E3010013B504460846216911
:1099540001F55B71D1E8AF1F022910D193B1A0B119
:109964000121CDE900311346D0E909120AF0D0FBF8
:10997400074B984208BF6FF00B0002B010BD6FF0A8
:109984000F00FAE76FF04C00F7E76FF00100F4E71F
:109994002EF8FFFF2DE9F74388461546066906F5BC
:1099A4005B73D3E8AF3F022B5FD1136823B96FF029
:1099B400150003B0BDE8F0831B78002BF7D0D6F870
:1099C4006893B9F1000F33D106F5D8774FF0FF3221
:1099D4004FF0FF3338460BF08FF830462A6801A960
:1099E400FFF7AEFE019C1CB938460DF079FBDEE7AB
:1099F40005F10803A3666B6984F86490E366E46385
:109A040060B138460DF06CFB21463046236E2A685F
:109A1400FFF774FE0020C8F80040CAE72022296836
:109A240004F1400011F051FB38460DF059FBF1E709
:109A340030460F490DF021FB04460028B7D005F14C
:109A4400080383666B69C063C366002380F86430CF
:109A540020222968403011F038FB2246012130468B
:109A640000F03EF80028D5D0A1E76FF00F00A0E782
:109A7400B5E301002DE9F04F05460E469046002758
:109A8400D0F8B0A085B0AAF5AE7421463046FEF7F2
:109A9400C7FCE0B9114BA4F1400B0293DAF8103083
:109AA4003246CDE9008329464FF0FF335846AAF5E4
:109AB400CE790AF079FB60B97023012203FB079386
:109AC40083F86420DAF80C300BB1584698477034A8
:109AD40017B105B0BDE8F08F0127D6E7C1720100C8
:109AE4001FB5144690B18AB1012912D10A4B00F175
:109AF400E0010293D0F8AC31403201934FF0FF33D0
:109B0400204600930AF050FB04B010BD6FF015001E
:109B1400FAE70020F8E700BFC17201002DE9F04325
:109B240087B00E46DDE90E811446DDE910251F4697
:109B340030B329B3DFF850C000F1E009002D08BFAD
:109B440065469EB9CDE9034400F5CE7420460596DA
:109B540010F0D8FC03ABCDE900432A463B4641460E
:109B640048460AF0F5FB07B0BDE8F0830022414601
:109B74000E9248462A4607B0BDE8F0430AF012BDEB
:109B84006FF01500EFE700BF799A0000F0B50E46BC
:109B9400044689B000286FD001230246C363002322
:109BA400D0F89810364F403040F80C7C42F8301F03
:109BB400CDE901334FF0FF330093C36D0FF062FF23
:109BC400304A06AB92E8030083E8030018460AF023
:109BD400B1F90546D8B904F134000AF08DF9054607
:109BE400A8B93946284805AA0FF028FF054670B9D8
:109BF400059B9A6872B10C33D4F89400C4F8A03071
:109C04000DF08DFBC4F8D40030B96FF00B05284675
:109C140009B0F0BD0346EFE7D4F894000DF07FFBE4
:109C2400C4F8D8000028F0D0D4F88C30D4F8A010B0
:109C3400C4F8A8300423C4F8AC30C4F8C4300223F8
:109C4400A362124BB4F89420D4F8D470C4F8B810BA
:109C5400C4F8D010D4F89010236204F1A403A4F83B
:109C6400B020C4F8A470C4F8C010A4F8C820C4F884
:109C7400BC00A661E362CAE76FF01505C7E700BF41
:109C84005CC30100B0B6010066C301006CB80100FA
:109C94002DE9F047044607464FF00109DFF85080EC
:109CA40014B93846BDE8F08794FAA4F5B5FA85F5F9
:109CB40009FA05F32E0108EB05156FEA030A24EAF5
:109CC40003042B7B002BEBD058F806301B694BB9EF
:109CD4004644736804222846196807EA0A0700F014
:109CE40051FADDE7284698470028D9D1F0E700BFAC
:109CF400A0B6010030B5002289B00F490F4811F019
:109D040027F8002200230024CDE906230E230C4D5E
:109D1400CDE903344FF440722846CDE90144094BA0
:109D2400094900940AF060FE0849284610F0BDFC79
:109D3400204609B030BD00BF559D00008090002032
:109D4400F08B00202DA0000008A400206EC30100A9
:109D540001480AF0BBBF00BF748600202DE9F0471C
:109D640080461F480F460DF02CFB0646002830D0D5
:109D740000252846BDE8F087237B73B12368DB68A0
:109D84000BB12046984723681B69D3B96368042242
:109D94002046196800F0F6F9013610344C45EBD32F
:109DA400B8F1000FE5D0002DE2D02846FFF770FF90
:109DB4000546002FF7D000214FF4A4700BF0A4FC4B
:109DC400F1E7204698470028E0D00AFA06F31D433D
:109DD400E2E705464FF0010A024CDFF80C90DDE79C
:109DE40080970020A0B60100B0B60100014B53F8E3
:109DF40020007047ACB8010008B5034608462BB1F3
:109E0400044A136000F074FC002008BD6FF01500D4
:109E1400FBE700BFB082002010B5044C237813B9CF
:109E240003480AF053FF0123237010BD599B0020FF
:109E34007486002010B5044606480DF0C2FA3CB101
:109E4400054BD3E8EF1F0139C3E8E21F002AF8D11C
:109E540010BD00BF789700207C97002000200146A9
:109E6400034BD3E8EF0FC3E8E21F002AF9D1704790
:109E74007897002070B5FFF7F1FF0546074C084EB0
:109E8400B44200D370BD63685B792BB123685B680F
:109E940013B12946204698471034F1E7A0B60100D3
:109EA400B0B6010010B5044C044920460CF0E7FE9E
:109EB400034B1C6010BD00BF9C85002098B80100B6
:109EC4007097002008B50023074A4FF4004113702F
:109ED400064A07481360074A1360FFF78DFFBDE881
:109EE4000840FFF7DFBF00BF5A9B0020789700208F
:109EF400C37301007C97002001460022002301481F
:109F04000CF0DEBE9C85002001480CF077BF00BF3A
:109F14009C850020024B014618680CF0C1BF00BFAD
:109F24007097002001480CF0F7BF00BF9C8500200B
:109F340070B5264B1878002847D0FFF7E5FF054693
:109F440070B1234BD3E8EF1F0139C3E8E21F002AA5
:109F5400F8D1204C204EB4422DD32846FFF7DAFF27
:109F64001E4B1F4C1B68002B19DD10F0AAFE4FF48A
:109F74007A72A0FB020302FB0131C30B43EA4143A3
:109F8400D4E900209B1A40F2E9324FEAD13161EB67
:109F94000001934271F1000101D3FFF76BFFD4E993
:109FA400003213F57A7342F10002C4E90032BDE8CD
:109FB4007040FFF7B7BF63685B7923B12368294614
:109FC40020461B6898471034C5E770BD599B002094
:109FD4007C970020A0B60100B0B60100789700205D
:109FE4007890002070B50D4D297861B90120FFF7F4
:109FF400B5FE0B4C0B4EB44206D3FFF799FF002875
:10A00400FBD101232B7070BD63685B791BB123689E
:10A0140020469B6898471034EDE700BF5A9B002008
:10A02400A0B60100B0B6010000212DE9F0470846B2
:10A03400FFF794FE044658B340F267684FF00009F6
:10A0440011F098F81B4B1C4A1B58136033B11B4B7F
:10A054001B68092B02DD1A480AF038FE0025194F47
:10A06400DFF85CA044B12046FFF712FE044618B99D
:10A074004FF0FF384FF0FF39FFF75AFF064628B973
:10A08400B5B942464B4650460AF046FE3546E9E726
:10A094004FF0FF384FF0FF39D2E72B689B691BB1B3
:10A0A40000222846114698471035BD42F5D3E8E70B
:10A0B400054DFAE708000000749700207C97002003
:10A0C40074860020B0B60100A0B6010013B518488C
:10A0D4000DF077F9174B1B787BB14FF02003EFF3AA
:10A0E400118483F31288BFF36F8FFFF721FF84F38A
:10A0F4001188BFF36F8F02B010BD0F4B1B68002B8C
:10A10400F9D050B9002200230C48CDE900234FF4C4
:10A11400004200230BF056FDEDE70928EBD1074878
:10A1240010F022FE064802B0BDE810400AF0CEBD91
:10A134007C9700205A9B0020749700208090002078
:10A144007486002010B5064B04461B6898472146C8
:10A15400A06004480CF032FEBDE81040FFF7B6BF23
:10A16400B08200209C850020044A054B9B1AB1EB69
:10A17400D30F34BF52F831000020704798B5010066
:10A18400A0B60100084B10B4C31A44681B11013374
:10A19400237143689A7101224368196043685A71B4
:10A1A40010BCFFF739BE00BFA0B601002DE9F04F87
:10A1B4008FB0C1F34A2804AF0D469146B8607B6066
:10A1C4000C0DB8F1000F63D000264FF0040B4FF0D4
:10A1D4000A0A07F11403C7F80C80C7E907667E6210
:10A1E4000193CDF808B0CDF800A007F11C03324666
:10A1F4004846F968FEF796FDB0F5006F03461CD398
:10A204006C468AB0D9F8041004AB26481A46C3E950
:10A21400050140F2FF71D9614FF400711984224B9A
:10A2240042F8103F4FF4125133462048FFF7BEFF67
:10A23400A5462C37BD46BDE8F08FC0F30A0804F1EB
:10A244001700184420F0070080083B60FFF754FE15
:10A2540068F35325044690B13B6800F11001C7E947
:10A26400083607F11403F961CDE900A3CDF808B06D
:10A2740048460F4AF96807F11C03FEF753FD68F3DB
:10A2840053252A4620467B68B9680DF0CCF8D0E700
:10A2940004F1170020F007008008FFF72DFE0446A4
:10A2A400EDE700BF83C301000400000140B60100D4
:10A2B400FF7301002DE9F04F87B00446DDE9105A21
:10A2C400DDE912690F4693469846A6B3102133463A
:10A2D40052460020CDF80090CDF81490FEF750FBC4
:10A2E400014605F117000844144B04F007040BF071
:10A2F400070BE40020F0070003EA412344EA8B142F
:10A3040080081C430391FFF7F7FD44EA0554054612
:10A3140040B13EB1334652460399CDF80090103017
:10A32400FEF72EFB434622463946284607B0BDE8D1
:10A33400F04F0DF078B83146D3E700BF00FE0F00B0
:10A344000EB403B503AB53F8042B01460448019340
:10A3540001F0F4FA02B05DF804EB03B0704700BFFB
:10A3640091740100CA0605D48B064CBF0249034907
:10A37400FFF7E6BF704700BFB4E30100B3E3010099
:10A384002DE9F04F89B09A46DDE914739DF84CB07D
:10A394000593169B04460D46179E06920493BBF143
:10A3A400000F00F0858006F0080307930DF023F8F2
:10A3B40006F002090246002849D020468549FFF7E5
:10A3C400BFFF8046B9F1000F08D016F0440F40D10A
:10A3D4002A4620468049FFF7B3FF804406F0010374
:10A3E40053B17E4B204653F82B207D4B7D49002AE8
:10A3F40008BF1A46FFF7A4FF06F00803002B54D049
:10A40400794B204653F82B207849FFF799FF0546EE
:10A41400069B2BB11A4620467549FFF791FF054468
:10A42400BAF1000F05D0524620467249FFF788FF63
:10A4340005444544002F49D1049B002B4FD1F30719
:10A4440000F1C18031462046FFF78CFFB5E080461D
:10A45400B8E7694B18680028BFD0684B4FF47A7985
:10A464001B684FF46161B5FBF3F5B5FBF0F300FB3A
:10A47400135509FB05F5B3FBF1F2B5FBF0FE4FF004
:10A484003C0C01FB123100FB1E55B1FBFCF309FB34
:10A4940005F5B5FBF0F50CFB131120460091CDE951
:10A4A40001E55749FFF74CFF97E706F00805AFE7CA
:10A4B400BAF1010F06D1002F65D1049B002B7CD08B
:10A4C40000250CE0002FF8D04E485DE04E483B4696
:10A4D40022464E490BF0CEFE049B002B69D0DFF8D8
:10A4E4003081DFF83091049F3146102F204628BF79
:10A4F40010274FF0000AFFF735FF554546DC059B52
:10A50400494620461A78FFF71BFF4FF0010A1AF05C
:10A51400070F03D141462046FFF712FF57453CD9A8
:10A52400059B4946204613F80A20FFF709FF0AF164
:10A53400010ABAF1100FEAD14FF0000A2046364959
:10A54400FFF7FEFE5246059B20469A5C334B995C0E
:10A5540011F0970F08BF2E223149FFF7F1FE0AF1DF
:10A56400010ABAF1100F1DD01AF0070F03D14146AA
:10A574002046FFF7E5FE57455246E4D841462046BB
:10A58400FFF7DEFEEBE720485D46A0E741462046A4
:10A59400FFF7D6FE0AF1010AAFE720462149FFF78B
:10A5A400CFFEC4E7059B3B440593049BDB1B04934C
:10A5B40099D1BBF1000F7FF442AF204609B0BDE84A
:10A5C400F04F0CF056BF2046054A0649FFF7B8FE87
:10A5D40038E700BFC7C30100CBC30100BCB801000A
:10A5E400C2C30100A3CF0100D0B80100F0C3010031
:10A5F400F6C30100FAC30100889700208497002065
:10A60400D4C30100BF7401009174010041B900007A
:10A614007FE30100FFC3010005C40100B8E40100A9
:10A6240007C401007DE301002DE9F0410F884B6868
:10A6340005460C4690468E6886B0C7F382175BB118
:10A64400144A9B1A43F3CF01002920DB2078C0F37E
:10A65400C200FFF789FD0346214651F8102B60889C
:10A66400C2F34A22002A01EB020408BF002100229F
:10A67400C0F30B10CDE90408CDE902142846314695
:10A6840001970092FFF77CFE06B0BDE8F08100233D
:10A69400E2E700BF98B5010042F20F7373B58B4235
:10A6A40028BF0B4605680446052168460D4A0BF091
:10A6B40069FB0646636828460B225B680A490CF06E
:10A6C400CBFE63683246694628465B680CF0C4FEDC
:10A6D40063681B2228465B6804490CF0BDFE02B087
:10A6E40070BD00BF3DCB010026C401000AC40100B7
:10A6F40000210123064A904206D8064A01B90123E3
:10A704001360054B18607047012140085B00F2E7B5
:10A7140040420F008497002088970020014B0020BE
:10A7240019607047A09700200122024B02481A705A
:10A734000CF09FBE5C9B002000B901000148FFF7AC
:10A74400ABBF00BF00B9010010B5064B0C4618683A
:10A75400FFF74CFB2146BDE8104003460F22024898
:10A76400184700BFA097002000B90100F8B50D46B6
:10A774000446064F4618B44201D12846F8BD14F8E1
:10A78400011BBB6801485B689847F4E7B8B2010055
:10A794000449431E0F3013F8012F8A5C83421A7058
:10A7A400F9D170476CC40100F0B50746264E8DB050
:10A7B40001AD0C460FCE0FC50FCE0FC596E80700AE
:10A7C40085E807003846002F39D0002C39D0381FCF
:10A7D4000246214610344B780D781B0443EA056386
:10A7E400CD7804312B4311F8025C8C4243EA0523F3
:10A7F40042F8043FEFD10421144C8A07036916D1AF
:10A80400C3F30742A55C1A0EA25C42EA0562C3F3D5
:10A814000725655DDBB2E35C42EA054242EA0322B6
:10A8240021F0030330336B4453F82C3C534050F86D
:10A83400042F013153402C290361DED101200DB0D6
:10A84400F0BD2046FBE700BFB8B601006CC40100B0
:10A854002DE9F04F002703689DB002934368DFF8A9
:10A86400BCA103938368DDE902460493C36805939E
:10A874000369DDE904BE0693436907938369DDE94F
:10A88400062C0893C36998460993089B0093CD59F5
:10A894000CAB2DBA5AF8049BDD514FEAF223A944BC
:10A8A40083EAB213009D83EA72634B4425EA0205EE
:10A8B40002EA0C0985EA09052B44434486EA0B05A0
:10A8C4004FEA743888EAB408254006EA0B0985EA99
:10A8D400090588EAB4580437A844402F03EB0E0551
:10A8E4004344DE46DDF8008040F088804FF0100AD3
:10A8F4004B490A9151460AF1010A0DF1700E0AF012
:10A904000F070EEB870757F8407C01F00F094FEA59
:10A91400B748019788EAF71801F10E0707F00F0707
:10A924000EEB870757F8407C09314FEAF74E8EEA61
:10A93400774ECDF82CE001F00F010DF1700E0EEB07
:10A9440081010EEB890959F840EC51F8401CBAF129
:10A95400400F7144DDF804E088EADE08DDF82CE0FD
:10A9640041448EEA972E714405EA02084FEAF52E17
:10A974002CEA050787EA08078EEAB51EDDF8288069
:10A984008EEA756E774458F804EF49F8401C774412
:10A994000F4400994FEA733E394484EA0607CDF820
:10A9A40028808EEAB30E07EA030704EA06088EEA53
:10A9B400B35E87EA080777440F4401EB0B0ECDF82A
:10A9C40000C0B34622D10299394401600399194465
:10A9D400049B416023448360059B3344C360069B0E
:10A9E40073440361079B2B444361089B13448361B5
:10A9F400099B6344C3611DB0BDE8F08FB346CDF835
:10AA040000C0264694461C462A4640E794462646FD
:10AA14002A461C4675463B466CE700BF10B9010048
:10AA24004CB9010010B50446C8B1702200210CF0E5
:10AA340060FD0B4B0B4A0C49C4E900230B4B0C483B
:10AA4400C4E902130B4BC4E9040301200A4BA361BC
:10AA540003F17453A3F52303A3F69243E36110BDFA
:10AA640085AE67BB67E6096A72F36E3C3AF54FA59B
:10AA74007F520E518C68059BABD9831F014910226C
:10AA84000A60704710ED00E072B6404080F3118810
:10AA9400BFF36F8F01B5FEF77DFC002802D0BFF332
:10AAA4004F8F30BFBDE8014062B6BFF36F8F704770
:10AAB40072B6494081F3118801B5FEF76BFC00289A
:10AAC40002D0BFF34F8F20BFBDE8014080F311884F
:10AAD40062B670472DE9F04781460C4600AF002965
:10AAE4004CD0D1E900126E468AB0A3686D464FF08F
:10AAF400050AA8462548C5E90723C5E9050148F81C
:10AB040010AF002342464FF421512148FFF74EFB7A
:10AB1400D4E90312B5466369AD461E48C5E9072367
:10AB2400C5E90501C5F810A0002342464FF42151A0
:10AB34001748FFF73BFBB54688B0E3696D464FF015
:10AB4400030AA846144AC5E9052348F810AF0023B0
:10AB540042464FF4C2510E48FFF728FBB546A3699D
:10AB6400AD460E4AC5F810A0C5E9052300234246A8
:10AB74004FF4C2510648FFF719FBB5462146484633
:10AB840009F026FDBD46BDE8F08700BF6CC5010095
:10AB940080B601009BC50100CAC50100D9C50100EA
:10ABA40040B2002807DB01234109034A00F01F00DB
:10ABB400834042F82130704700E100E040B20028B1
:10ABC4000CDB01220649430900F01F0082402033B8
:10ABD40041F82320BFF34F8FBFF36F8F704700BF3F
:10ABE40000E100E0054B420953F82220012300F064
:10ABF4001F0003FA00F01040704700BF00E100E0BE
:10AC040040B2002801F10101ACBF00F16040064BE5
:10AC14004FEA4111C9B2ABBF00F5614000F00F002B
:10AC240080F800131954704714ED00E030BFFFF7AB
:10AC3400FDBF00BF0B4A08B50B4B22F07F029A60A0
:10AC4400BFF34F8FBFF36F8FD3F8882022F47002C5
:10AC5400C3F8882009F07CFD0AF0E8FD00F000FC50
:10AC640009F0C0FD0080000000ED00E0094A0A4937
:10AC7400936809689867D96708494B6843F080531B
:10AC84004B60002383F31188BFF36F8F9368D86FF1
:10AC9400704700BFFC9A002004BF010000ED00E0F3
:10ACA40018498A6882F881E04FF030001044EFF3CD
:10ACB400098C80E8F01F202080F31288BFF36F8F87
:10ACC400114F4FF000664A698A603E604FF0740489
:10ACD400141920680D4C206092F981E0906F0023D4
:10ACE400936780F3118802F1300090E8F01F8CF331
:10ACF400098802F1000004B50DF051F8BDE80440E4
:10AD040070470000FC9A002004ED00E0A4970020A6
:10AD14001EF0040F0CBFEFF30880EFF30980816984
:10AD240011F8021C0229FFD001B50DF029F801BD6C
:10AD340042F8203C009B0D4942F81C3C019B21F049
:10AD4400010142F8183C029B42F8081C42F8143CEA
:10AD54004FF0807342F8043C002383674FF43C4374
:10AD6400203A0265C0F88030704700BFE9900000C7
:10AD74000A4B446F98600A4B1C60436E83F30B8844
:10AD8400104681F30988002163B681F31188BFF36B
:10AD94006F8F00220023FEF7A5F900BFFC9A002064
:10ADA400A497002001B5EFF30580A0F110004FEA4D
:10ADB400C0000449014409C99847BDE8014002495B
:10ADC4000847000008B301002DAE0000114B124AE1
:10ADD4002DE9F041D518013DB5FBF3F5DFF83C80D2
:10ADE4005D430F4B074608EB0304013CB4FBF3F44B
:10ADF40003FB04540E1B30460A4910F09EF97019E7
:10AE040042460021083E10F0A5F97E6704F10800CF
:10AE1400BDE8F08101000000000000000400000013
:10AE240004000000B0B60100044B996858698842D8
:10AE340003D003494FF080520A607047FC9A002007
:10AE440004ED00E02DE9F04186B006460D4600AF62
:10AE54000224444B4FF482517B6143483C6107F127
:10AE640010020CF0A0FF414B9B6ADB0678D5404BE7
:10AE74003D484FF48251C7E9044307F110020CF036
:10AE840092FF1120394B9B6A1C070BD5394B36486E
:10AE94007B6102234FF482513B6107F110020CF0F5
:10AEA40082FF1220314CA36A990723D5E846324B1E
:10AEB40007F110027B6102234FF482513B612A485F
:10AEC4000CF071FF636BA26A120612D588B06A4651
:10AED4002A492548C2E9051303234FF4C25142F815
:10AEE400103F0CF060FFC5461EB1A36A23F0800337
:10AEF400A36213201D4B9B6ADE070BD5204B1A4817
:10AF04007B6102234FF482513B6107F110020CF084
:10AF14004AFF1420154B9B6A9C060BD5194B12480B
:10AF24007B6102234FF482513B6107F110020CF064
:10AF34003AFF15200D4B18379A6AD10658BF9A6A02
:10AF44009A6A920642BF5A6A22F400525A629A6A74
:10AF540042F0FF029A6200232B70BD46BDE8F081E7
:10AF640010208FE707C6010080B6010000ED00E065
:10AF74001DC6010050C6010063C601007BC6010066
:10AF840091C60100B0C601002DE9F04186B0064625
:10AF94000D4600AF0224474B4FF482517B61464873
:10AFA4003C6107F110020CF0FEFE444B9B6AD9048D
:10AFB4006DD5434B40484FF48251C7E9044307F130
:10AFC40010020CF0F0FE17203C4B9B6A1A050BD5BF
:10AFD4003C4B39487B6102234FF482513B6107F1BA
:10AFE40010020CF0E0FE1820344CA36A9B0523D514
:10AFF400E846354B30487B61022307F110023B6180
:10B004004FF482510CF0CFFEA36BA26A100412D548
:10B0140088B06A462D492848C2E9051303234FF432
:10B02400C25142F8103F0CF0BEFEC5461EB1A36AE1
:10B0340023F40043A3621920204B9B6A59050BD5C6
:10B04400234B1D487B6102234FF482513B6107F17E
:10B0540010020CF0A8FE1A20184B9A6AD20518D5D3
:10B064001C4B15487B6102234FF482513B6107F16D
:10B0740010020CF098FE1B20104A1837936A43F410
:10B084007F43936200232B70BD46BDE8F0811620F8
:10B094009AE79B6A9B04EFD50F4B07487B61022319
:10B0A4004FF482513B6107F110020CF07CFE1C202E
:10B0B400E2E700BFDFC6010080B6010000ED00E05A
:10B0C400F5C6010050C6010006C701001FC70100F4
:10B0D40034C701004FC70100B0C6010010B586B0E7
:10B0E40002243E4B4FF482513D4804AA0593049434
:10B0F4000CF059FE3B4B9B6A99016CD53A4B38488E
:10B104004FF4825104AACDE904430CF04CFE1E20F6
:10B11400344B9B6ADA010AD5344B31480593022338
:10B124004FF4825104AA04930CF03DFE1F202D4BD2
:10B134009B6ADB020AD502242D4B29484FF4825125
:10B1440004AA059304940CF02EFE2046254B9B6A1A
:10B154001C030AD5274B2248059302234FF482513E
:10B1640004AA04930CF01FFE21201E4B9B6A590372
:10B174000AD5214B1A48059302234FF4825104AA9D
:10B1840004930CF010FE2220164B9B6A9A030AD5F6
:10B194001A4B1348059302234FF4825104AA0493D3
:10B1A4000CF001FE23200F4B9B6ADB030AD5144BE2
:10B1B4000B48059302234FF4825104AA04930CF024
:10B1C400F2FD2420074A936A6FEA03436FEA1343AC
:10B1D400936206B010BD1D209AE700BF67C7010047
:10B1E40080B6010000ED00E07FC7010092C70100B6
:10B1F400ACC70100D6C70100F4C7010019C801009B
:10B2040033C801002DE9F0478AB07D4B0446D3F8DA
:10B2140004908A461646002500AFC9F3080885F352
:10B224001188BFF36F8F02F07F43B3F17F4F25D1B5
:10B23400D30723D4500603D411070FD401250FE0FC
:10B24400704B4FF48251FB6102236F48BB6107F1DD
:10B2540018020CF0A8FD16F0040600D05446002590
:10B264000023FB71A8F10303092B00F2A880DFE897
:10B2740003F0079B9E97A6A6A6A6A6A12C46EFE7D9
:10B28400E9464FF00208614B07F11802FB614FF4E5
:10B2940082515D48C7F818800CF085FD0023584E94
:10B2A400FB71F36A9A070BD5594BC7E906834FF430
:10B2B4008251554807F118020CF075FD002338E05F
:10B2C400F36A002B01DA534BEFE7F36A5B00F5D521
:10B2D400514B07F11802C7E906834FF482514A48DB
:10B2E4000CF061FD7369A26943F480737361BFF369
:10B2F4004F8FBFF36F8F736932F8022C23F480737E
:10B304007361BFF34F8FBFF36F8F4DF602739A4291
:10B3140031D188B023686A4640493B48C2E90513E5
:10B3240003234FF4C25142F8103F0CF03CFDCD46CC
:10B334002368FA79DAB907F1080604F1200C3246D9
:10B3440020686168083403C264451646F7D17A6AF6
:10B35400002D50D0C2F3080121B96FEA52226FEADE
:10B3640042227A62184607F10801FFF7B3FB283737
:10B37400BD46BDE8F087B36ADBB223B10120F91DF5
:10B38400FFF760FD0EE0B36A13F47F4F04D0012091
:10B39400F91DFFF7F9FD05E0B36AB3F5803F8DD3DE
:10B3A400FFF79CFE0346C4E70020F91DE8E70020F0
:10B3B400F91DEEE71A4BFB610223BB6177E7194ADB
:10B3C4006E4619F4F87F8AB0174B18BF13466A46C5
:10B3D40016490D48C2E90513A8F11003D3614FF4CF
:10B3E40000731384124B4FF4115142F8103F0CF0C8
:10B3F400DAFCB54662E722F4FF7222F00102B0E7FC
:10B4040000ED00E08CC8010080B60100AFC8010067
:10B41400C6C80100E7C80100F5C8010014C901004D
:10B4240030C9010073C801005EC8010054C901009D
:10B4340004000001044B5A6942F010025A615A692F
:10B4440042F480625A61704700ED00E0EFF3088037
:10B45400EFF3098101B57246FFF7D4FE01BD00BFC9
:10B46400002320210348C2180133452B82F800131E
:10B47400F9D1704700E100E0002080F31488BFF3A5
:10B484006F8F002080F30A8880F30B88FEF78CF816
:10B4940000200E490860BFF34F8F0D4880F30888E1
:10B4A40000F03EF8202080F311880A484FF4006130
:10B4B400401880F30988EFF314800221084380F3D5
:10B4C4001488BFF36F8FFFF7B5FB000094ED00E025
:10B4D400B8C6002078B50020BFF34F8F0549064B4E
:10B4E400CA6802F4E0621343CB60BFF34F8F00BF1E
:10B4F400FDE700BF00ED00E00400FA050023184654
:10B504000649D1F89020C2F30722934200DB70472A
:10B51400C1F89830C1F8A0000133F6E700ED00E06F
:10B5240010B572B6002484F31388FFF7E7FF2346AF
:10B534004FF0FF300C4A03F120010133102B42F885
:10B544002100F8D100234FF0FF30074A03F16001D6
:10B554000133102B42F82100F8D162B6BFF34F8FAC
:10B56400BFF36F8F10BD00BF00E100E0084B9B6884
:10B5740083420BD1EFF3058343B1064B5A6842F083
:10B5840080525A605A6A22F400425A620AF0DCB8C5
:10B59400FC9A002000ED00E01FB5094C094A23463F
:10B5A4000121094800F02AF900230393074B0121E4
:10B5B400E41A01A80193029400F02AF904B010BD22
:10B5C400000007200080002010BA0100F08700204E
:10B5D40010B50C7A0B6804F01F0223F01F031A4302
:10B5E400CB68640923F01F03054943EA440343F08D
:10B5F4000103C1F89800C1F89C20C1F8A03010BD27
:10B6040000ED00E080B500AF88B06A46074BC2E9A0
:10B614000530032342F8103F00234FF4C25104487D
:10B62400FEF7C4FD6FF01500BD4680BD6BC9010077
:10B6340060B601002DE9F04F144606464FF00009AC
:10B6440087B05F4D00AF79607B68994535DAD6F8ED
:10B654000480B8F1000F54D0B8F11F0F1BD918F0B3
:10B664001F0F18D1D6F800B01BF01F0F13D1584686
:10B674000CF09EFB824608EB0B0001380CF098FBA3
:10B6840082451FD06FF0150A6C4688B06A464D4952
:10B69400C2E9051A05E06C4688B06A464A4BC2E91D
:10B6A4000539032342F8103F00234FF4C2514748A1
:10B6B400FEF77CFDA5466FF0150420461C37BD46F9
:10B6C400BDE8F08F1AF1160FDED05445DCDDC5F865
:10B6D40098A0D5F89C00C5F898A0D5F8A02020F033
:10B6E4001F0042F01F08D6E900211144904201F1E5
:10B6F400FF3B1ED1D84508D131465FFA8AF00CF0E1
:10B7040060FB09F101090C369EE7C5F898A0D5F84D
:10B714009C3021F01F0103F01F030B433146C5F891
:10B724009C30E0B20CF04DFB10F1160FC3D0441C5A
:10B73400E7E7013AD845E0B222F01F02C5F898A025
:10B7440008D1D5F8A030314603F01F031343C5F8E0
:10B75400A030E7E7D5F8A01001F01F010A43C5F8AF
:10B76400A02031460CF02DFB10F1160FA3D0C5F824
:10B7740098A0D5F89C203B7C08F1FF3862F30403C1
:10B784003B74D5F8A0303A7C5B0863F347123A74F3
:10B79400D6E900321344BB6023F01F03441C434426
:10B7A400A3EB0B03E0B223F01F0307287B6102D94C
:10B7B400FFF728FFB8E707F10801FFF709FFB6E72D
:10B7C40000ED00E0B4C9010091C9010060B60100B8
:10B7D4000522044BC3F89420BFF34F8FBFF36F8F40
:10B7E400704700BF00ED00E0BFF35F8F0022024B03
:10B7F400C3F89420704700BF00ED00E010B5034C7F
:10B804002278FFF717FF207010BD00BF5D9B00205A
:10B814002DE9F74F294D8A4606464FF00008AB46FE
:10B82400274FD0451BDAD6F80490B9F1000F3FD06A
:10B834003168084601910CF0BBFA0199044609EB02
:10B84400010001380CF0B4FA84424FF014021D4B8D
:10B8540008D002FB08F36FF015024BF8032003B085
:10B86400BDE8F08F14F1160F2C60F8D01978A142BE
:10B87400F5DD02FB08B0C7F89840C7F89840D7F840
:10B884009C4000F10801007B64F304000871D7F8C0
:10B89400A0000C79400860F347140C71D7F89C1091
:10B8A40021F01F016960D7F8A01021F01F01296160
:10B8B40008F1010814350C36B3E700BFA89700203F
:10B8C40000ED00E05D9B002038B50E4D2C68082C7F
:10B8D40015D80020FFF788FF0B4B0C4AC3F8C02093
:10B8E400844205D10A4B00201C70FFF771FF38BD5C
:10B8F400696801EB0011FFF76BFE0130F0E74FF0D0
:10B90400FF30F4E71CBA010000ED00E0AAFF440098
:10B914005D9B002008B5024B1B689847002008BDBA
:10B92400BC970020034B044A1860937843F0020349
:10B9340093707047BC970020B4820020F0B587B0A4
:10B9440007460E4614460021102268461D460FF095
:10B9540001FC02238DF80230054B2A462146684635
:10B96400CDE9047601930AF039FA07B0F0BD00BFBF
:10B97400077E010008B50649064821F00701C1F118
:10B98400005202F5E0220AF031FF002008BD00BF9A
:10B994000BEB0020B8DE0020F8B5144BD3F83021AF
:10B9A400D3F83431072A1CD1023B032B02D8104AA6
:10B9B400D35CB3B1012600244FF050270D4D052070
:10B9C400C7F81866C5F814460DF0C1FF3046C5F82F
:10B9D40014660DF0BCFFC5F81446C7F818460020DD
:10B9E400F8BD0022034BC3F81426F8E700F0072043
:10B9F400E6C901000050004008B504480EF09CFD63
:10BA040000280CBF6FF01200002008BDA4B2010092
:10BA14000E4B402928BF402170B51D460C4C4618DA
:10BA2400B04203F1020304D1002305F811300748A2
:10BA340070BD02781209A25C03F8022C10F8012BE5
:10BA440002F00F02A25C03F8012CE9E77C9B0020C2
:10BA540062CA010030B503788BB0044607AD032BEE
:10BA640021D8DFE803F0021A1C1E12492846FCF70D
:10BA7400E1FC059563781E210493A3780E4A039391
:10BA8400E3780E4802932379019363790093A379B1
:10BA94000AF078F909480BB030BD0949E6E70949CD
:10BAA400E4E70949E2E70A212846084A0AF06AF964
:10BAB400DFE700BF1DCA01003FCA01005E9B0020F2
:10BAC40024CA01002BCA010035CA010042DA010070
:10BAD40030B50024094D0A4B85B0284602930394DF
:10BAE4000EF05DFF02AB284600934FF4A3620A23D5
:10BAF400044909F06DFA204605B030BDB890002025
:10BB040073CA010008A700200146014809F0D6BA0B
:10BB1400B8900020037830B5012B13D0022B27D026
:10BB24007BB90A46184B03F1100453F8045BA34293
:10BB340042F8045BF9D11B78137043884B731B0ADA
:10BB44008B7330BD0A46104B03F1100453F8045BA9
:10BB5400A34242F8045BF9D11B7813704368C3F322
:10BB640007224B731B0CCB731B0A8A730B74E8E715
:10BB740000F1100350F8042B984241F8042BF9D13A
:10BB840003780B70DDE700BF7CCA0100012838B5DB
:10BB940005460CBF064807480DF009FC044620B1D1
:10BBA40001210C300DF05FFC2576204638BD00BF26
:10BBB40040870020BC8600200246002070B50B465A
:10BBC4000A49D1E8EF4FC1E8E50F002DF9D124B9B6
:10BBD400BDE870400120FFF7D9BF01212082217602
:10BBE40004F10C000DF03FFC204670BD38810020AC
:10BBF40070B504460F2C0D461046194605D80D2C79
:10BC04000DD9BDE87040FFF7D7BF132C07D10C48FE
:10BC14000DF0CDFB044638B90024204670BD024621
:10BC24000B4645B10748F3E701210C300DF01BFC2E
:10BC340001232376F1E70120BDE87040FFF7A6BF9A
:10BC4400C48700201487002070B58EB06C46064669
:10BC54000A4D0D2E0FCD0FC40FCD0FC40FCD0FC441
:10BC640095E8030084E803009DBF0EAB03EB860652
:10BC740056F8380C02480EB070BD00BFE4B601009F
:10BC840095CA010038B5C368B3F801401B786BB995
:10BC94000F21204602F076FF054640B9084B1A886A
:10BCA40022B96FEA04506FEA1050188038BD0121A0
:10BCB40002F066FE2846BDE838400CF057BB00BFD2
:10BCC400349B002010B5084C0146052294F86F00FF
:10BCD40003F092F838B994F86F000422BDE81040DC
:10BCE400024903F089B810BD0080002003CA010096
:10BCF40080B5C36800AF88B06A461B780649074818
:10BD0400C2E9051303234FF4C45142F8103F0CF069
:10BD140018F9BD4680BD00BF9DCA0100E8B5010009
:10BD24007FB5064B4FF4825105930223044804AABD
:10BD340004930CF006F907B05DF804FBC5CA0100D2
:10BD4400E8B5010098B5014600AF0D480DF036FB8B
:10BD54000C490D480EF012FE00280EDA6C4688B02D
:10BD64006A460A4B4FF4C251C2E90530032308481E
:10BD740042F8103F0CF0E5F8A546BD4698BD00BF5B
:10BD84003C81002000830020E8910020DFCA0100EC
:10BD9400E8B501000B46B0B50D8A00AF044629464C
:10BDA400D868FFF735FE8AB06A46094BC2E90750E6
:10BDB400C2E9053440F202439384064B4FF43251F6
:10BDC400054842F8103F0CF0BCF8BD46B0BD00BFBA
:10BDD400FCCA010005000001E8B5010080B501219D
:10BDE40000AF0C300DF073FB88B06A460378064947
:10BDF4000648C2E9051303234FF4C25142F8103F29
:10BE04000CF09FF8BD4680BD1ECB0100E8B50100D3
:10BE14002DE9F041C56800AF2E78B6B9B5F80180B8
:10BE24000F21404602F0AEFE044688B96C4688B045
:10BE34006A460C4B4FF4C251C2E9053803230A4841
:10BE440042F8103F0CF07DF8A546BD46BDE8F081F0
:10BE5400EB783146437202F093FD20460CF086FAEB
:10BE6400F3E700BF40CB0100E8B50100B0B5C368FB
:10BE740000AF1C880121204602F084FE80B96D4683
:10BE840088B06A46084B4FF4C251C2E90534032313
:10BE9400064842F8103F0CF054F8AD46BD46B0BD1C
:10BEA4000CF064FAFAE700BF66CB0100E8B50100C4
:10BEB400B0B5C36800AFB3F801400121204602F0D9
:10BEC40061FE80B96D4688B06A46084B4FF4C25192
:10BED400C2E905340323064842F8103F0CF031F858
:10BEE400AD46BD46B0BD0CF041FAFAE766CB0100A1
:10BEF400E8B50100B0B5044600AF02EBC3039342BA
:10BF040003D12046FFF746FF18E0104610F8085BFF
:10BF1400A54219D10B8A5078984211D96D4688B040
:10BF24006A460A49D461C2E9051304234FF4015156
:10BF3400074842F8103F0CF004F8AD46BD46B0BDCA
:10BF4400084653689847F9E70246D8E78ACB0100C8
:10BF5400E8B501002DE9F0415D4800AF0DF044FA69
:10BF6400044600287CD0037E012B7CD0032B40F0B8
:10BF7400A980038A032B0CD84FF40073554A564901
:10BF840056480AF073FD404080F311884FF00300D7
:10BF940002DF042104F10C000DF099FA4588B0F891
:10BFA4000080204605F016FA4D4EC8F30B0326F820
:10BFB4001030238A9D4213D06E4688B06A464949A0
:10BFC400D561C2E9051304234FF40151464842F8F0
:10BFD400103F0BF0B6FFB546204605F0A1FA26E067
:10BFE400204605F0F7F90F2136F8100002F0CAFDDB
:10BFF4000546A0B9204605F0EDF96D4688B036F83F
:10C0040010306A463949C2E9051303234FF4C2517B
:10C01400354842F8103F0BF094FFAD46DCE721466B
:10C024004FEA183202F046FB28460CF09FF9304BD9
:10C03400D3F83C31A3B12F492F480EF09FFC0028C0
:10C044000EDA6C4688B06A462C4B4FF4C251C2E9F2
:10C0540005300323244842F8103F0BF072FFA54635
:10C06400BD46BDE8F081038A012B0CD840F65D2360
:10C07400184A194919480AF0F9FC404080F311881C
:10C084004FF0030002DF022104F10C000DF01FFA4F
:10C09400054600780BF02BFF83070CD440F6612390
:10C0A4000C4A17490D480AF0E1FC404080F311881E
:10C0B4004FF0030002DF04232146124A2878FFF7D9
:10C0C40019FF89E76D4688B06A460F499BE700BFB0
:10C0D4003C810020ACCB0100E0CB0100F9CB010096
:10C0E400369B002016CC0100E8B501003ACC0100D3
:10C0F4000080002000830020E8910020DFCA0100B6
:10C104005CCC0100DCBA01008ACC010010B501212D
:10C1140004460C300DF0DBF92146BDE8104007233E
:10C12400014A0078FFF7E6BEFCBA0100F8B5C5681D
:10C134000121B5F8016000AF304602F023FD04464A
:10C1440080B96C4688B06A46104B4FF4C251C2E9BC
:10C15400053603230E4842F8103F0BF0F2FEA546C5
:10C16400BD46F8BD2B783BB9D5F80330C0F8AD30E7
:10C17400D5F80730C0F8B1304FF48051201D0BF0D2
:10C18400C9FE20460CF0F2F8EAE700BF66CB0100D6
:10C19400E8B501002DE9F843064600AF907A8846D9
:10C1A400144605F00FF9414D854218D0A47AE846AB
:10C1B400204605F007F98AB06A463D4BC2E90740BC
:10C1C400C2E90536062355624FF44251394842F814
:10C1D400103F0BF0B6FEC546BD46BDE8F8832046C9
:10C1E40005F0F8F84FF00C09334D09FB0050438873
:10C1F400B34216D0204605F0EDF809FB00506C461A
:10C2040088B06A464388D36104232C492948C2E98B
:10C2140005164FF4025142F8103F0BF092FEA5466A
:10C22400DAE7274ED6F8380120B105F079F9002372
:10C23400C6F83831204605F0CDF80C2606FB005030
:10C244004368ABB1B8F1000F12D1204605F0C2F833
:10C25400012106FB00504268D2E90003127A03F080
:10C264001F06B1405B09DAB100EB83000BF052FE0C
:10C27400204605F0AFF80C2606FB00508368002B1F
:10C28400AAD0204605F0A6F8704305F800802046A1
:10C2940005F0A0F806FB0055A86808F017FD9BE719
:10C2A400C94300EB83000BF04FFEE1E798870020C1
:10C2B4009ECC0100E8B50100C0970020D3CC01005A
:10C2C4000080002038B5042104460C300DF0FFF83E
:10C2D4004578017822464088FFF75CFF25B1BDE828
:10C2E4003840024808F0F2BC38BD00BF208100206D
:10C2F40038B5032104460C300DF0E9F8E3680578FD
:10C3040022461978B0F80100FFF744FF25B1BDE8D3
:10C314003840024808F0DABC38BD00BF2081002054
:10C324002DE9F04F87B00123D0F80C80018A98F8EA
:10C33400004000AF03EB84038B4240F28D806D46D6
:10C344008AB06A46C2E90731052346484FF42151B1
:10C35400C2E90504444842F8103F0BF0F2FDAD4633
:10C364001C37BD46BDE8F08F6C4688B06A463F4B2B
:10C374004FF4C251C2E9053B03233B4842F8103F46
:10C384000BF0DFFDA546013598F800309D42E7DA51
:10C3940008EB8503B3F801B00F215846B3F80360E6
:10C3A40002F0F0FB04460028DED000F1280B46B36F
:10C3B4004FF02003EFF3118283F31288BFF36F8FE2
:10C3C400E3696BB1013BE36182F31188BFF36F8FC3
:10C3D400204602F035F9013E08F078FCB6B2E6E7F3
:10C3E400636993B982F31188BFF36F8F02234FF40B
:10C3F40082511D4807F11002C7F814A03B610BF0ED
:10C40400A0FD20460BF0B2FFBDE7A16918688B427E
:10C41400606108BFA06182F31188BFF36F8F4FF092
:10C424002002EFF3118182F31288BFF36F8FDA6871
:10C43400E261C3F80C90C3F80090626A4AB9C4E997
:10C44400083381F31188BFF36F8F584608F0BAFDA3
:10C45400BEE713606362F4E70025DFF814A0A94681
:10C4640092E700BF06CD0100E8B5010030CD010020
:10C474004CCD0100F0B583B0C5680121B5F8016069
:10C4840000AF304602F07EFB044688B96C4688B0A3
:10C494006A462C4B4FF4C251C2E9053603232A489D
:10C4A40042F8103F0BF04DFDA5460C37BD46F0BDDC
:10C4B4002B78061D1A2B17D1C378012B28D14FF4E2
:10C4C400806130460BF026FD42050DD4D4F8A0302F
:10C4D40039463B60D4F8A83020467B6002F058FF10
:10C4E40020460BF043FFE0E72B788BB9B5F8033017
:10C4F400A4F89E30B5F80530A4F8A430B5F8073098
:10C50400A4F8A6306FF4807130460BF01DFD14E0E2
:10C51400D6E8AF3FDB05F5D52B78202BF2D194F884
:10C52400AC30002BEED0013B84F8AC304FF4203219
:10C53400002304F1580008F0EBFD204602F070FBE4
:10C54400CEE700BF66CB0100E8B5010010B5C1E934
:10C5540000239DF808300C460B7204F03BFF0C22BC
:10C56400024B02FB00335C6010BD00BFC09700208B
:10C574002DE9F0474FF0FF324FF0FF3306461748DE
:10C584000F460CF014FF4FF00008044600F10C0AAB
:10C59400012150460CF067FF204684F8188004F00F
:10C5A40019FF4FF00C090E4D09FB00504680204640
:10C5B40004F010FF09FB0050C0F80880204604F086
:10C5C40009FF09FB005503215046C5F804800CF00F
:10C5D4004EFF068087702046BDE8F08798870020CC
:10C5E400C09700202DE9F04387B0804615460C46DD
:10C5F40000AF21B9FFF7BCFF044600285DD001223B
:10C60400002138460EF00AF9204604F0E3FE0C231C
:10C61400DFF8B49003FB0090876020460CF0FDFE29
:10C6240001462A480CF0F7FE4FF4A02200233846B6
:10C6340008F072FB064688B14FF4A973244A2549D1
:10C6440025480AF013FA3246414624480AF00EFA05
:10C65400404080F311884FF0030002DF204604F0CD
:10C66400B9FE0C23584319F80060F6B16D4688B042
:10C674006A461B4BD661C2E9053804234FF40251C4
:10C68400184842F8103F0BF05CFC2046AD4604F01D
:10C6940047FF092E14D00D2E0CBF6FF00B006FF066
:10C6A40004001C37BD46BDE8F08315B12C600020A2
:10C6B400F7E7204604F034FFF9E76FF06800F0E78D
:10C6C4006FF06E00EDE700BFC097002044810020AA
:10C6D400ACCB010063CD0100F9CB01006CCD0100AE
:10C6E40098CD0100E8B5010070B588B006460D4646
:10C6F40042F22F00002101AAFFF774FF044660B143
:10C704000B4B4FF48251079302230A4806AA06935F
:10C714000BF017FC204608B070BD0198C368B3F84D
:10C7240001203280B3F803302B8004F0F9FEF1E7E6
:10C73400B4CD0100E8B50100F7B5144B054693F9F3
:10C744009B300C46002B1DDA14B9204603B0F0BD13
:10C75400082C4FF0000142F2180001AA264628BF17
:10C764000826FFF73FFF0028F0D1019F3246F96801
:10C77400284601310EF0E1FC384604F0D1FE354480
:10C78400A41BE1E76FF08500E0E700BF0080002014
:10C794002DE9F0478CB00026A94BB0F80180198828
:10C7A40048F470420478914208BF1E80054608BFD1
:10C7B400012602AFA4B33C2C22D101F033FB6FF06D
:10C7C400800110300BF0C0FB0020FFF77BFA054618
:10C7D40070B99C4B4FF482517B6202239A483B62AE
:10C7E40007F120020BF0ADFB2837BD46BDE8F0870A
:10C7F4004472002102F0C4F828460BF0B7FDF3E7B9
:10C804006D4688B002AA914B4FF4C451C2E9053475
:10C8140003238D4842F8103F0BF093FBAD46E3E74A
:10C82400C37800F10409012B08BF894B484608BFAF
:10C8340093F86F400BF057FB494640B307F11000E3
:10C844000BF046FB05F1110107F109000BF06DFB3C
:10C8540001233B72EB78012B27D04846FFF7FAF807
:10C864006C4688B002AA7B4B4FF4E251C2E9053012
:10C874004FF400739383784B734842F8103F0BF0E6
:10C8840060FB1321A54640460BF066FBACE720464F
:10C894000BF01DFC014607F110000BF04BFB494661
:10C8A40007F108000BF046FBD4E707F11000FFF78F
:10C8B40009FAEB780446012B0AD101F0B3FA824657
:10C8C4006FF0800110300BF03FFB50460BF005FD7C
:10C8D400002CC2D020460022B5F8013007F1100127
:10C8E40020F8883B0BF026FBB5F81730A4F89E30EF
:10C8F400B5F81930A4F8A430B5F81B30A4F8A63064
:10C90400EB786272012BE37016D107F1080104F190
:10C914008F000BF00FFB01F085FA217A4C4AC1EB32
:10C92400C101114404F196000BF004FBD2F8E43089
:10C934005D0601D501F036FC0721204602F020F8FF
:10C944001EB10121204602F01BF820460BF044FDE5
:10C95400A37A072B6ED1231DD3E8AF3F13F4805F76
:10C964003B4D29D1E3781BB195F8D830180723D56E
:10C97400022142F21600FFF7FBFD064600285BD0B9
:10C9840002210C300CF073FD238800220380314611
:10C9940042F21600FFF726FE70B16E4688B002AA76
:10C9A4002E4B4FF4C251C2E905300323264842F806
:10C9B400103F0BF0C6FAB54695F8D930D90716D50D
:10C9C4000021022320461A4600910BF0FEFA70B1B2
:10C9D4006E4688B002AA224B4FF4C251C2E9053018
:10C9E4000323194842F8103F0BF0ABFAB54695F80B
:10C9F400D8309A061ED5D5F85C319B689B0719D5AB
:10CA0400B91D381DFFF770FEA0B92046FA88B98811
:10CA14000BF0BDFA70B16D4688B002AA114B4FF409
:10CA2400C251C2E905300323074842F8103F0BF016
:10CA340088FAAD462046E0E66FF06800ADE700BF37
:10CA4400349B0020D4CD0100E8B50100F5CD0100F0
:10CA5400008000200ECE0100030000012ACE010058
:10CA64004BCE010062CE010000B5C16889B00B78DD
:10CA740001A88DF80030B1F801300431ADF801306F
:10CA840011F8013C8DF80330B1F80730ADF81730D8
:10CA9400B1F80930ADF81930B1F80B30ADF81B30EE
:10CAA4004B7B8DF81D300BF045FA07490DF10B0057
:10CAB4000BF03BFA0DF111000BF037FA6846FFF763
:10CAC40067FE09B05DF804FB17CA0100024BD3F8F6
:10CAD4005C315B69184700BF00800020F8B505464B
:10CAE4000C4600AF19B9FFF743FD044618B340F6EE
:10CAF40035439D4219D12046FFF7E8FF054688B12A
:10CB04006E4688B06A460D4B4FF4C251C2E90530F7
:10CB140003230B4842F8103F0BF013FA2046B546A6
:10CB240004F0FEFC2846BD46F8BD214605480CF03D
:10CB340072FC0025F6E76FF06805F3E77ECE01008E
:10CB4400E8B50100448100202DE9F04186B000AF32
:10CB5400044604F03FFC324B33F81050A07A04F042
:10CB640031FC21460DF04CFE2E4B93F88A309B0687
:10CB740014D50F21284602F005F8044690B96C46F6
:10CB840088B06A46284B4FF4C451C2E905350323E3
:10CB9400264842F8103F0BF0D4F9A5461837BD4695
:10CBA400BDE8F081837A073B012B0ED9204B4FF46B
:10CBB40084517B6102231D483B6107F110020BF095
:10CBC400C0F920460BF0D2FBE8E70BF0CFFB0521C0
:10CBD40040F63540FFF7CCFC044658B9154B4FF4EA
:10CBE40082517B61022311483B6107F110020BF073
:10CBF400A8F9D3E700F10C08012140460CF037FCFA
:10CC040001260421067040460CF031FC0023058007
:10CC14008670C370214640F63540FFF75FFFBDE7DD
:10CC2400369B002000800020A0CE0100E8B5010062
:10CC3400CACE0100F6CE0100F0B583B0C36800AFE0
:10CC4400D9789A781E8842EA01223A8059791A7969
:10CC5400B4B242EA01227A80D9799A79204642EA2A
:10CC64000122BA801A7A5B7A012142EA0323FB800B
:10CC740001F088FF0546A8B96D4688B06A461E4B88
:10CC84004FF4C251C2E9053403231C4842F8103F53
:10CC94000BF057F90221AD4620460BF0E2F90C37B0
:10CCA400BD46F0BD394601F0FFFF38B91E212046CC
:10CCB4000BF0D7F928460BF059FBF0E70E2142F2AE
:10CCC4002000FFF755FC04460028F3D00E210C3059
:10CCD4000CF0CDFB00230680C0F80A303B882146C7
:10CCE40043807B888380BB88C380FB88038142F2B6
:10CCF4002000FFF7F3FEDDE766CB0100E8B5010095
:10CD04002DE9F04FDFF8548187B0DFF8549100AF7C
:10CD1400D8F80C3053486FF39433C8F80C3001F052
:10CD2400E5FD451C4FF0FF324FF0FF3329464B48D9
:10CD340008F078FF60B140F6DE234A464A494B4882
:10CD440009F094FE404080F311884FF0030002DFA5
:10CD54004FF0030A414E15B908F054FCD8E7F368C4
:10CD6400C3F38633022B60D9042B68D1337B002BA9
:10CD74005ED1002200233E480CF01EFB044660B93D
:10CD84004FF427634A463B49384809F06FFE404058
:10CD940080F311884FF0030002DFDFF8DCB04FF0BE
:10CDA400FF334FF0FF32354807F0B6FFDBF8383178
:10CDB4008BB1334B4FF482517B610223314807F12D
:10CDC40010023B610BF0BDF8DBF8380104F0A8FB5E
:10CDD4000023CBF8383120460CF01FFBCBF8380188
:10CDE4002046FFF773FE00B3EB4688B06A46264B35
:10CDF4004FF4C251C2E905300323224842F8103FE0
:10CE04000BF09FF8DD461D4807F060FF204604F054
:10CE1400E1FA0C221D4B1F2102FB00302246408800
:10CE2400FFF7B8F9204604F07BFB1436013D92E786
:10CE3400012BFAD13069383802F0C6F8F5E76C46B0
:10CE440088B06A4612490F48C2E905134FF4C45129
:10CE540042F810AF0BF075F8A546E6E7C48200204F
:10CE6400ACCB0100D882002063CD0100F9CB0100D6
:10CE740044810020BDDC01000080002020810020CE
:10CE840019CF0100E8B501007ECE0100C097002053
:10CE940034CF01002DE9F041044600F10C06304680
:10CEA4000CF025FBB4F810800546B8F1010F0CD83E
:10CEB40040F685631B4A1C491C4809F0D7FD4040D5
:10CEC40080F311884FF0030002DF304602210CF09A
:10CED400FEFA074600780BF00AF8C20706460CD49F
:10CEE40040F689630F4A1249104809F0BFFD4040DB
:10CEF40080F311884FF0030002DF052321460D4A19
:10CF04003878FEF7F7FFB30707D56369A4F81080F4
:10CF140013FA85F5E560BDE8F0812046BDE8F041EF
:10CF240004F0FEBAACCB0100E0CB0100F9CB010068
:10CF340055CF0100B4BA0100B0B5037E0446012BFD
:10CF440000AF06D0032B12D1FEF7FCFE0020BD4635
:10CF5400B0BDC36818780AF0CAFFC207054602D5F7
:10CF64002046FFF797FFAB07F0D52046ECE76D4668
:10CF740088B06A4608490948C2E9051303234FF4F7
:10CF8400C25142F8103F0AF0DCFF2046AD4604F0DF
:10CF9400C7FA6FF01500DAE76ECF0100E8B50100BB
:10CFA400084A0346D2F85C0130B9D96839B15969E5
:10CFB40029B1C2F85C3170476FF0770070476FF0A9
:10CFC40015007047008000202DE9F84F3D4C00AF5C
:10CFD40004213D480AF09EFF3C4DE2793C4B20463B
:10CFE400012A88BF1D466E46FEF734FD8AB06A46A4
:10CFF400384BA346C2E905350125374BD06113628E
:10D00400364B4FF42351364842F8103F0AF099FF4B
:10D01400DFF8D080B546DFF8C890334EE3790BF1E2
:10D02400070B9D4238DB94F870506E462846FEF795
:10D034000BFE8CB06A46B4F87210B4F87630C2E9CC
:10D0440007514FF400755362DFF8A0C0284BC2E9C2
:10D0540005C015854FF4535142F8103F20480AF09B
:10D0640070FFB54694F871603046FEF7EDFD8AB066
:10D074006A46B4F874301F49C2E907631E4BC2E91B
:10D08400051095844FF43351154842F8103F0AF0C7
:10D0940058FFBD46BDE8F88F5846FEF7DBFCEA466C
:10D0A4008AB06A4640F20133C2E90565D06113844F
:10D0B4004FF41351484642F8108F0AF042FF0135ED
:10D0C400D546ABE700800020D4800020B5E3010002
:10D0D40082CF010086CF0100000201030400000298
:10D0E400E8B501000400000195CF0100A6CF0100BE
:10D0F40006000001E4CF010005000001F0B589B08D
:10D10400674D00AFD5F85C31996811F001011AD16F
:10D1140040F603403A1DFFF765FA0446002840F044
:10D12400BA807868C3681B785BB905F1D403D3E887
:10D13400AF2F02F00902D3E8EF1FC3E8E42F002C5D
:10D14400F9D104F0EDF9002141F203003A1DFFF793
:10D1540049FA0446002840F09E807B68514EDA6804
:10D16400D2F80100D2F8051003C6184604F0D8F925
:10D17400214641F201003A1DFFF734FA0446002823
:10D1840040F089807868C3685A7885F870205A8896
:10D19400A5F872201A7985F87120B3F80720A5F84C
:10D1A4007420B3F80530A5F8763004F0B9F92146B7
:10D1B40041F202003A1DFFF715FA044600286AD12D
:10D1C400D7F804C0DCF80C20531C413234461868EC
:10D1D4005968083303C493422646F7D1604604F0E5
:10D1E4009FF901F08FF80446002854D195F88A304D
:10D1F4009B061CD42C4B4FF48451FB6102232B4817
:10D20400BB6107F118020AF09CFE95F87C305E06BB
:10D2140050D4274B4FF48251FB6102232348BB6156
:10D2240007F118020AF08DFE6FF0120433E00721B3
:10D2340040F63340FFF79CF90646002800F02481AD
:10D2440007210C300CF013F91B2303700623C0F8DC
:10D2540002408471447004712246C370314640F622
:10D264003340FFF7BFF90446A8B9012140F6314025
:10D27400FFF77EF90646002800F0068101210C30F4
:10D284000CF004F92246314640F63140FFF7AAF982
:10D2940004460028B9D020462437BD46F0BD00BF5F
:10D2A40000800020788000200BD00100E8B5010048
:10D2B40039D00100002142F2030007F10802FFF710
:10D2C40091F904460028E6D1BB68964EDA68D2F894
:10D2D4000100D2F8051003C6184604F021F92146CE
:10D2E40042F2020007F10802FFF77CF90446002825
:10D2F400D1D1BC68E368B3F8012091B249B1D978BF
:10D3040039B1A5F80421DA78114606F128000DF0A8
:10D3140085FA204604F004F995F87C6016F020069E
:10D3240018D1022140F66D40FFF722F90446002887
:10D3340000F0AA8002210C300CF099F80123214658
:10D3440003704670324640F66D40FFF74BF90446D1
:10D354000028A0D195F89C301C0713D5002142F277
:10D364001C0007F10802FFF73DF90446002892D19A
:10D37400B868C368D3F80120D3F80530C5E9382369
:10D3840004F0CEF895F8D830980621D5391DB81C8C
:10D39400FFF7AAF9044600287FF47DAF042142F286
:10D3A4002400FFF7E5F8064600286DD004210C3070
:10D3B4000CF05DF87B8822460380BB8831464380AD
:10D3C40042F22400FFF70EF9044600287FF463AF0D
:10D3D400082142F20100FFF7CBF80446002853D09D
:10D3E40008210C300CF043F895F8D82012F0020F05
:10D3F40014BF2F230F23910695F8D92048BF43F07B
:10D40400400312F0090F4FF0000218BF43F4006309
:10D414000370C3F30723214643708270C270027104
:10D4240042718271C27142F20100FFF7DBF80446D7
:10D4340000287FF430AF95F87C30B5F804119A06D3
:10D4440025D4D1B941F2050007F10802FFF7CAF863
:10D45400044600287FF41FAFB5F80431BC684BB90B
:10D46400E368B3F80120A5F804219A882E481146F0
:10D474000DF0D4F9204604F053F8082140F6014099
:10D48400FFF776F8044690B96FF0680403E70029C3
:10D49400F3D1264B4FF48251FB6102232448BB6134
:10D4A40007F118020AF04DFD6FF00404F3E60821B9
:10D4B4000C300BF0DCFF1023037088230022437030
:10D4C4000226202321468270C67002714271827145
:10D4D400C37140F60140FFF785F8044600287FF445
:10D4E400DAAE01463A1D4FF60140FFF77BF818B358
:10D4F400104BC7E906634FF484510D4807F1180235
:10D504000AF01FFD00F070FB044600287FF4C3AE50
:10D5140001F0E6FD044600287FF4BDAEFFF754FD9C
:10D52400B9E600BFD8800020088100205DD001004A
:10D53400E8B5010080D001007B686E46DC688AB0E3
:10D54400B4F80130032B96BF434A444952F82310E0
:10D554006A46D3614FF4007341481384414BC2E9D6
:10D56400050142F8103F4FF413513F480AF0E9FC1B
:10D57400B4F80120B546022AB4F803304CD1032B89
:10D584004AD83A4A52F823106E468AB06A46D361A2
:10D594004FF4007336481384324BC2E9050142F854
:10D5A400103F4FF4135130480AF0CBFCB546637971
:10D5B40094F806C0032B98BF2E4AB4F80760D4F839
:10D5C40009006C468CB094BF52F8231023496A4674
:10D5D400C2E9073C4FF40073DFF89CE09385274BC6
:10D5E400C2E905E1C2E909604FF4735142F8103F02
:10D5F4001D480AF0A6FCA546786803F091FF0021B7
:10D604004FF602403A1DFEF7EDFF044630B11C4BC5
:10D61400FB610223BB616EE71049B5E77868C36814
:10D62400B3F80130A5F8C13003F07AFF95F8C130A2
:10D634005B077FF567AF21464FF603403A1DFEF7BF
:10D64400D1FF08B10F4BE3E77868C3685B7885F8CE
:10D65400C03003F065FF55E7A4BA010095CA010084
:10D66400A4D0010004000001E8B5010094BA01004F
:10D67400BDD0010084BA0100D5D00100070000012B
:10D6840002D101002BD1010010B5FFF737FD034B88
:10D694001B6813B1BDE81040184710BD389800202E
:10D6A400F0B58FB03B4D0646D5F85C3108AF83B971
:10D6B400394B6FF012047B6102234FF482513748D7
:10D6C40007F110023B610AF03CFC20461C37BD46C2
:10D6D400F0BD6FF0020105F1D4000AF035FC012120
:10D6E4000AF018FC10EA010450D12D4B1E600A46C2
:10D6F40005F590700DF092F805F5A2700DF069F83B
:10D7040000220023CDE906236FF008034FF4806262
:10D71400CDE90243CDE90044224B23490494234834
:10D7240007F062F9224921480CF0BFFF21480DF0AF
:10D7340036F96FF007034FF496621F491D480094B1
:10D7440007F046FC1D491B480CF0AFFFD5F85C31CF
:10D75400DB689847044678B16D4688B02A46184B72
:10D764004FF4C251C5E9053003230C4842F8103F79
:10D774000AF0E7FBAD46A8E71EB9FFF7BFFC044675
:10D78400A3E705F1C40007F01DFC9EE76FF07704E2
:10D794009BE700BF0080002054D10100E8B50100E0
:10D7A4003898002005CD000020AC002060910020B6
:10D7B4006DD10100E891002020B0002073D1010058
:10D7C40079D10100024BD3E8AF0FC0F3800070475A
:10D7D400D4800020004870473FC10100F8B50646D8
:10D7E4000024094DEF79E3B29F4202D86FF00100A3
:10D7F40007E0294630460AF053FC0735631C08B19C
:10D804002046F8BD1C46EEE70080002037B50446EC
:10D814000D4671B1284612490AF042FC48B929461E
:10D824001048C4EBC40420440AF047FC002003B0B1
:10D8340030BD68460AF03EFB0028F8D16846FFF781
:10D84400CDFF0028F5DA074BC4EBC4006946184441
:10D854000AF033FC002DE9D001462846E4E700BF76
:10D864000ACA01000080002038B506221149054685
:10D874000DF009FCC8B1062142F20500FEF778FE5E
:10D884000446A0B1062229460C300BF0F6FD002216
:10D89400214642F20500FEF7A5FE38B9054829469F
:10D8A4000AF006FC012300F8013C002038BD6FF0AB
:10D8B4006800FBE76980002070B50D46044686B019
:10D8C400F0B123490AF0ECFBD0B92378012B04D141
:10D8D400A37903F0C003C02B0DD01E4B4FF482512B
:10D8E400059302231C4804AA04930AF0EDFB6FF08D
:10D8F400150006B070BD2046FFF770FF002821DA3E
:10D90400002DF4D1154DEB79012B1ED005F1D40374
:10D91400D3E8AF3FDB0707D4002CE8D020460C49FE
:10D924000AF0BEFB0028E2D1EE792146731C304692
:10D93400EB71FFF76BFF08B93046DAE7EB79013B8F
:10D94400EB71D6E76FF07700D3E76FF00B00D0E709
:10D954000ACA010088D2010000B60100008000203C
:10D96400F0B5044689B060B9194B079302234FF40C
:10D974008451184806AA06930AF0A6FB002009B0B1
:10D98400F0BD002141F2090001AAFEF72BFE064674
:10D9940008B1114BE9E7019F0622FD680F490135E3
:10D9A40028460DF070FB28B1062228460C490DF0DC
:10D9B4006AFB18B9384603F0B3FDDFE72946601C5B
:10D9C4000AF076FB3846267003F0AAFD0120D6E75C
:10D9D400B6D2010000B60100CFD2010017CA01007F
:10D9E40011CA010007B56846FFF7BAFF044BD871A6
:10D9F40018B169460020FFF709FF03B05DF804FB86
:10DA040000800020F0B5244B054693F8C2300E4642
:10DA1400DB0789B00DD4214B0793002402234FF474
:10DA240084511F4806AA06930AF04EFB204609B00B
:10DA3400F0BD00214FF6094001AAFEF7D3FD0346CD
:10DA440008B1184BE8E701981627C26854780232E7
:10DA5400B44228BF34469C420EDC03F061FD002C26
:10DA6400E4D1114B4FF48451079302230C4806AAC6
:10DA740006930AF029FBD9E7114607FB035602F186
:10DA8400140C51F804EB614546F804EBF9D109880C
:10DA9400013331801632DEE700800020EDD2010030
:10DAA40000B6010019D3010039D3010070B5154D3A
:10DAB40088B0EC792CB9012102A8FFF7A3FFE87123
:10DAC400C0B90021084608B0BDE87040FFF7F4BEB5
:10DAD40002AB06FB02310DF101000AF0E9FA012361
