:020000040000FA
:1080000000DD0020A5C7000025CE010079C70000D3
:1080100079C7000079C7000079C7000079C7000060
:108020000000000000000000000000008DBF000004
:1080300079C70000000000001DBF000079C70000E4
:1080400021C0000021C0000021C0000021C00000AC
:1080500021C0000021C0000021C0000021C000009C
:1080600021C0000021C0000021C0000021C000008C
:1080700021C0000021C0000021C0000021C000007C
:1080800021C0000021C0000021C0000021C000006C
:1080900021C0000021C0000021C0000021C000005C
:1080A00021C0000021C0000021C0000021C000004C
:1080B00021C0000021C0000021C0000021C000003C
:1080C00021C0000021C0000021C0000021C000002C
:1080D00021C0000021C0000021C0000021C000001C
:1080E00021C0000021C0000021C0000021C000000C
:1080F00021C0000021C0000021C0000021C00000FC
:1081000021C0000021C0000021C0000021C00000EB
:1081100021C0000021C0000021C0000021C00000DB
:1081200021C0000021C0000021C0000021C00000CB
:1081300021C0000021C0000021C0000021C00000BB
:1081400021C0000021C0000021C0000021C00000AB
:1081500021C0000053B94AB9002908BF00281CBF3C
:108160004FF0FF314FF0FF3000F00CB8ADF1080CCC
:108170006DE904CE00F008F8DDF804E0DDE9022343
:1081800004B07047704700BF2DE9F04786468C4623
:108190000846089E154674461946002B40F0C180DB
:1081A0008542B2FA82F245D94AB1C2F1200300FAFF
:1081B00002FC954094402EFA03F343EA0C0C4FEA7C
:1081C000154EA8B2230CBCFBFEF80EFB18CC08FB26
:1081D00000F943EA0C43994528D9EB1808F1FF3719
:1081E00004D2994502D9A8F102072B44A3EB090355
:1081F000A4B2B3FBFEFC0EFB1C330CFB00F044EA04
:108200000344A04214D92C190CF1FF3304D2A0422C
:1082100002D9ACF102032C44241A43EA07401EB1F0
:10822000D440002334607360BDE8F0874746DDE743
:108230006346F1E792BB431B01214FEA154EAFB2F3
:10824000200CB3FBFEFC0EFB1C330CFB07F840EAD2
:108250000343984561D9EB180CF1FF3004D29845DF
:1082600002D9ACF102002B44A3EB0803A4B2B3FB88
:10827000FEFC0EFB1C330CFB07F744EA0344A74249
:108280004DD92C190CF1FF3304D2A74202D9ACF11D
:1082900002032C44E41B43EA0040C0E7C2F1200380
:1082A0009540944020FA03F12EFA03F34FEA154E5D
:1082B0009040AFB20343B1FBFEFC0EFB1C10190C47
:1082C0000CFB07F841EA0041884522D969180CF1F6
:1082D000FF3004D2884502D9ACF102002944A1EB59
:1082E00008019BB2B1FBFEFC0EFB1C110CFB07F757
:1082F00043EA01439F420ED9EB180CF1FF3104D23F
:108300009F4202D9ACF102012B44DB1B41EA004140
:1083100093E76046E3E76146F7E76046A4E7634614
:10832000B8E7834206D916B9002108467CE7C6E9BA
:1083300000E0F9E7B3FA83F78FB9834201D37245BE
:1083400008D8BEEB020460EB030301209C461EB973
:10835000002169E73846FAE7C6E9004CF8E7C7F1BB
:10836000200CBB400EFA07F522FA0CF42EFA0CF1A1
:10837000BA401C4320FA0CF3B8404FEA14490143B9
:108380001FFA84FEB3FBF9F809FB18300B0C08FB4D
:108390000EFA43EA00439A4540D9E31808F1FF304A
:1083A00004D29A4502D9A8F102002344A3EB0A03A0
:1083B00089B2B3FBF9F809FB183308FB0EFE41EA5A
:1083C00003418E452CD9611808F1FF3304D28E4544
:1083D00002D9A8F10203214443EA0040A1EB0E01B7
:1083E000A0FB02984145CE46434602D306D14D45F7
:1083F00004D20138B9EB020E68EB0403002EA7D0BB
:10840000B5EB0E0261EB030101FA0CFC22FA07F353
:10841000F9404CEA0303C6E9003199E74046C5E755
:108420004346D9E710F8012B11F8013B012A28BF78
:108430009A42F7D0D01A7047034611F8012B03F87F
:10844000012B002AF9D17047034613F8012B002AAB
:10845000FBD1181A013870477FB5094B04AA059360
:1084600002234FF484510748049313F0EFF940F2CC
:1084700067620023044807B05DF804EB10F08EBD7E
:10848000A007020050FE01001089002008B530202E
:1084900017F052FA38B100238385011DBDE808406A
:1084A000034813F0D6B9BDE80840FFF7D5BF00BFB9
:1084B00070FB010070B503788AB004460E4607AD24
:1084C000032B20D8DFE803F002191B1D11492846B1
:1084D000FFF7B2FF059563781E210493A378304619
:1084E0000393E3780C4A0293237901936379009311
:1084F000A37912F039FF0AB070BD0849E7E70849CF
:10850000E5E70849E3E70A212846074A12F02CFF6D
:10851000E0E700BFC9070200EB070200D007020036
:10852000D7070200E1070200782F0200B0B588B03B
:1085300000AF0C4614F079FF3946FFF7BBFF6D46DC
:108540008AB06A46114BD461C2E905374FF4007313
:1085500013840F4B0F4C10484FF4135142F8103F47
:1085600013F074F92068AD4618B107F0CBFC002376
:1085700023600A4C206830B107F0C4FC00230120BE
:10858000236016F01EFA2037BD46B0BD0E0802006B
:10859000040000012898002050FE01002C980020C3
:1085A000B0B588B0044600AF89B16C4688B06A4661
:1085B000174B1848C2E9053103234FF4C25142F862
:1085C000103F13F043F9A5462037BD46B0BD14F067
:1085D0002CFF3946FFF76EFF6D4688B06A460E4B9A
:1085E0004FF4E651C2E905374FF4007393830B4B08
:1085F000084842F8103F13F029F92046AD4607F02D
:1086000059FC074B1860012016F0D8F9DCE700BFD1
:108610002B08020050FE0100460802000300000182
:108620002C9800202DE9F047002405468EB000AFBD
:108630008846164621461A2207F11C00BC6117F035
:10864000E7F9284607F1180514F0EFFE2946FFF771
:1086500031FFE94688B06A46284B4FF4E651C2E93B
:1086600005354FF400739383254B264842F8103F9D
:1086700013F0ECF8DFF890A0CD46DFF89090B4420C
:108680000FD0302017F058F9054670B9204B4FF441
:1086900084517B6102231B4807F110023B6113F0F8
:1086A000D5F83837BD46BDE8F087321B272A8CBF86
:1086B000272292B2031D828508EB0401184617F0A9
:1086C0009AF9AA8D03461444A4B2A6420AD108EB33
:1086D000060111F8011C0D2904D10A20A918013244
:1086E0000871AA8519464846AA8D13F0BAF80028E1
:1086F000C5D02946504616F043FFC0E75308020094
:108700000300000150FE0100C486002070FB010040
:108710006A08020010B50B7886B0052B28D8DFE870
:1087200003F0038A2B687A468B680BB34868F8B16C
:108730004B4A1368F3B1181F00231360494A1360B2
:1087400017F0F3F80022002347480FF01DFE78B120
:10875000828D011D454813F084F848B1444B0593C0
:1087600002234FF48451434804AA049313F06EF893
:1087700006B010BD0438E3E74A68CB68108D0344A7
:108780003D489BB213850278002AF1D14A68134410
:1087900013F8013C0A2B01D00D2BE9D10123037002
:1087A000324883685B6906B0BDE810401847002472
:1087B000314B30201C7017F0BFF838B18485011D93
:1087C0002A4806B0BDE8104013F043B82B4B04AA6A
:1087D000059302234FF484512648049313F036F88E
:1087E00040F267620023264806B0BDE8104010F052
:1087F000D5BB302017F0A0F8014650B10023282245
:1088000083851A48043183681B6906B0BDE81040AF
:1088100018471A4BA3E74B68191F1B8D2BB119483A
:1088200006B0BDE8104016F0ABBE084606B0BDE885
:10883000104017F07AB80A4A13680BB94B681360F6
:1088400008488B6801680B44116803600A8D07486B
:10885000D21A194406B0BDE8104013F002B800BFA8
:108860002498002020980020C486002070FB01007E
:108870009508020050FE01002C9D0020A007020078
:1088800010890020A8860020F0B587B04FF0FF3295
:108890004FF0FF3310480FF025FE104D104E114FD2
:1088A0004FF0FF324FF0FF3328460FF06DFD0446C6
:1088B000828D011D002003F067F840B102234FF4C0
:1088C0008451384604AA0596049312F0BFFF20464F
:1088D00017F02BF8E4E700BF60860020A886002090
:1088E000B308020050FE0100F0B589B002AF0CF0F1
:1088F00049FF70B16C4688B002AA574B4FF4C25181
:10890000C2E905300323554842F8103F12F09EFF9C
:10891000A546534C204616F0D1FDC0B1302017F0CB
:108920000BF8054698B100264E4986854E4810F052
:1089300019FAA3681B6863B94C4B4FF482517B61F1
:10894000022346483B6107F1100212F07FFF12F04C
:1089500090FF32462046464998470028ECD1302007
:1089600016F0EAFF06460028F1D0031D41491846DB
:10897000FFF762FD26220146B285204612F071FF04
:1089800078B16C4688B002AA3B4B4FF4C251C2E9A1
:1089900005300323314842F8103F12F057FFA54637
:1089A000D5E72046291D12F054FF0028CFD106F04C
:1089B0009FF80028CBD16C460226304B4FF48651ED
:1089C00026487B613E6107F1100212F03FFF2C4800
:1089D0000FF044FD2B4802F0CBFF80B188B002AA13
:1089E000294B4FF4C251C2E9053003231B4842F81A
:1089F000103F12F02BFFA5461C37BD46F0BD3C468C
:108A0000224D0FCD0FC42B68324623600123384618
:108A100000931F491F4B06F063FD044678B16D4675
:108A200088B002AA1C4B4FF4C251C2E9053003239F
:108A30000A4842F8103F12F009FFAD46DCE7013466
:108A400004F0010100200CF0C9FE00214FF40040A9
:108A500011F0EEFBF3E700BFDB08020050FE01005F
:108A600070FB01008D84000010890020F6080200D0
:108A700015870000160902003D0902006609020080
:108A800060860020388200207C09020070FF01000F
:108A90001000020008000200A80902002DE9F04FB2
:108AA00091B0009302F004030293C2F3C2030133B6
:108AB000840705460E46DDF868800392059340F072
:108AC000F681041D30B1072909D86FF01B0011B0E1
:108AD000BDE8F08F01F00706341DC6F108064FF01F
:108AE00000094FF0040B009B4F46013B01934FF0F0
:108AF000FF324B46DA46CDF810900DB10099216057
:108B00000598002800F3D78098480099814203D344
:108B100097488142C0F0CF800399A4EB050E8907E6
:108B20004FEA9E0040F1E2804FF0000CCCE07A2842
:108B30005AD84B280CD8472856D829282AD825286F
:108B400051D051D8202877D023384342434173E095
:108B50004C382E2848D8DFE800F06F474747474792
:108B60004747474747474947474747474747475981
:108B70004749495959596F496C476F471849184730
:108B800047807D49474749477D00002000234FF03B
:108B9000040B39E001212A38C0B201FA00F010EAD2
:108BA0000E0F49D110F0625C30D110EA010343D0BE
:108BB0006046013C5C44B4FBFBF40BFB04F4002D69
:108BC00060D0AAEB050CA4446645FFF47EAF0028F4
:108BD0006AD1BAF1040F45D158F8040B20604FF068
:108BE000040A043428E0013A002325E0019B13F82D
:108BF000013C6C2B33D10020019B13F8023C6C2B01
:108C00000346C4D14FF0080BDA46D2E708F1070853
:108C100028F00708073424F00704F8E802AB35B160
:108C200006982044B0423FF650AFC4E900AB0023A1
:108C300008344FF0080BDA46019911F8010F019141
:108C4000002800F0BC80002B7FF471AF2528F3D101
:108C5000012301324FF0040BEDE7184696E70020A0
:108C60000346A6E7BAF1080F40F09B8008F1070819
:108C700028F00708F8E80201C4E900014FF0080AEB
:108C80000834D9E780B9BAF1040F02D108F1040819
:108C9000A5E7BAF1080F40F0848008F1070828F032
:108CA000070808F10808E9E705990139059158F81E
:108CB000041B009121E7039988074AD54FF0010C66
:108CC000A4EB050E4FEA9E00BEF5007F1ED3294996
:108CD00040F27B23284A294813F07EF8284813F0F5
:108CE0007BF840F27B21244813F06FF80F2F0FD848
:108CF000002D49D007F140010DEB010C0CF8200CC0
:108D00000CF8102C04980130049021E00F2F0CD99E
:108D100018494FF42073184A184813F05DF81948A1
:108D200013F05AF84FF42071DDE7CDB107F140019F
:108D30000DEB010EC0B20EF8200C0EF8102CBCF199
:108D4000000FDFD060F07F000EF8200C09F1010960
:108D50000137C5F108014FF6DA7E043406916BE75E
:108D6000BCF1000F10D00136F2E700BF44FA010059
:108D7000305002005B3C0200FB090200290A02009D
:108D8000460A0200670A0200029802360028DFD174
:108D90000098CDE90632FFF757FBDDE906320644BD
:108DA000D6E740F2C523434A4349444813F014F838
:108DB0005146434813F010F840F2C52193E7631B76
:108DC000B3F5806F0CD33C4940F2D123394A3B487C
:108DD00013F002F83B4812F0FFFF40F2D12182E786
:108DE0001DB9A6F10804E01871E6029A9B082860F4
:108DF0002B709DF81030C2B1EB7085F80290B9F17C
:108E0000000F05D0002208A8C5F1010C97420ED131
:108E10004FF0000AC5F101030DF1200801930DF197
:108E2000300B574512D1601B51E66B70E5E710F827
:108E3000013B190608D504EB0C0E764503F07F03C1
:108E4000FFF443AE04F8013B0132DFE7B9F1000F54
:108E500003D098F90020002A17DB029BD3B11AF83F
:108E60000B2004F8012B0022019B98182044864215
:108E7000FFF42BAE98F80000009904F8010B20468F
:108E8000039216F0B8FD039A14440AF1010A08F19E
:108E90000108C6E798F8002055F822300093029B9D
:108EA000009845F82230FFF7CFFA421CDCE76FF05C
:108EB0000D000CE6FB0902005B3C0200290A0200DF
:108EC000810A0200960A02002DE9F04F95B000AF2A
:108ED0008A4604467A62BB6158B9A8494FF4657363
:108EE000A74AA84812F078FF4FF46571A44812F021
:108EF0006CFFBB6F90F802B0C3F3C0033B6141B994
:108F0000457800780BEB80002044554517D8A0EB3E
:108F1000040AE3787B61BBF1000F02D0BB6FD80776
:108F200016D47B6953BB7B6A1BB151462046BA6994
:108F30009847554628465437BD46BDE8F08F461C35
:108F40003046FFF781FA013030440AF1010ADCE7CC
:108F5000237862683B629B00FB603B6AFA6104EB2A
:108F600083097B6A002B40F00081C84600265546E5
:108F700009EB0B0AC24551D1D94413E0BB6F9907E5
:108F8000D1D5237899463B629B00FB60636804EB74
:108F90008909FB617B6A002B7AD15546BBF1000F32
:108FA0004FD15E46BB6F13F0050F0CBF4FF0020BA5
:108FB0004FF0010B7B6909EB430ABB6F03F002031F
:108FC0007B62D145B6D019F8021B19F8013C54F860
:108FD00023806D4B984502D36C4B984538D33B6941
:108FE000002B42D0F86912F080FC00283DD0E84602
:108FF0008AB06A46664B5361FB69C2E906314FF499
:1090000000731384634B42F8103F00234FF4125156
:10901000614802F0D5F8023DC546D2E718F8013B99
:1090200054F82300FFF710FAFB6F01303BB1D7F87B
:1090300080309E423EBFFB6F23F816000136054488
:1090400098E7BB6F13F004061CBF7E6AD944A9E7FA
:109050003B6923B1F86912F048FC0028C7D1BB6F07
:10906000DA0705D4A5EB0B05ABE77B6A002BA8D08C
:109070004046FFF7E9F9FB6F43B1D7F880309E42D5
:109080003FBFFA6F431C22F816300136054498E7BB
:10909000BBF1000F6FD0BB6F13F004067ED0D84633
:1090A000002607F140005A46494616F0A4FC7B69A9
:1090B000D9445B007B607B6909EB4303BB60BB6FFA
:1090C00003F002033B60BB68994569D1B96F6378CF
:1090D000B86F890748BF002106EB030258BF4FEA6B
:1090E0005801C507D2B200F1DF8010F0040F14BFA1
:1090F00040460020FB616270A070E1702046BA69B2
:10910000F9687B6A9847051EFFF614AF3B6A414633
:109110002370FB69BA6963707B6984F802B0E370FD
:1091200007F140007B6A9847B0F10008C0F2E9807F
:10913000FB68AAEB0B01C91A7B684846C91ABA69D1
:109140007B6A98470028C0F2DE804FF0000BA844ED
:1091500008EB000507F1300AB345C0F0A7800021F5
:10916000BA6908467B6A9847E4E65E464FF0000815
:1091700007F1300097E75E46D84698E7AD0A02004F
:10918000FB090200290A020044FA010030500200E3
:10919000C80A020004000001D8FE0100B04686E7BC
:1091A00019F8021B594B19F8015C54F82500984234
:1091B00002D3574B984216D33B692BB1F86912F092
:1091C00094FB00287FF47FAF3B68002B4AD00F2E22
:1091D0003ED950494FF489634F4A504812F0FCFD84
:1091E0004FF4896182E63B692BB1F86912F07DFB8F
:1091F00000287FF468AFBB6FDB070BD50F2E27D994
:10920000444940F23E43444A444812F0E5FD40F2EE
:109210003E416BE6BB6F58077FF555AFB8F10F0FB6
:1092200009D93F4940F241433B4A3C4812F0D4FD42
:1092300040F241415AE608F1280307F1280208F1FB
:10924000010103EB020808F8105C5FFA81F83AE7C5
:1092500006F1280307F12802711C9E1806F8205C0D
:10926000CEB230E7B8F10F0F09D92D4940F24B4388
:10927000294A2A4812F0B0FD40F24B4136E608F187
:10928000280307F1280208F1010003EB020C07F1A3
:10929000500308F1020853FA80F00CF8101C5FFA32
:1092A00088F800F8105C0EE7002023E71BF80A306E
:1092B00054F8239087F82F30FB6FFBB133F81B80F5
:1092C0000121BA697B6A07F12F00984700281ADB51
:1092D0000544B8F1000F06D14846FFF7B5F800F194
:1092E00001081FFA88F841464846BA697B6A9847E0
:1092F000002808DB05440BF1010B2DE7D7F87C8033
:10930000DEE7454616E6054614E600BF44FA0100CE
:10931000305002006B0B0200FB090200290A020018
:109320008A0B0200014B1860704700BF4482002086
:1093300080B505460E461746984610F0ADFF034629
:1093400016F076FB0446DFF81890424649F80030E4
:1093500039463046A84754F8090003F09DFA00BF8B
:1093600008000000F8B50F4600293BD0066801222E
:10937000304612F028FB01460446304612F0EBFA64
:10938000C3070DD4AF23184A1849194812F024FD19
:109390003946184812F020FDAF21134812F015FD90
:1093A0002146304612F0EDFA2518294600223046B3
:1093B00012F0D1FA2D1AAC420BD0B7230A4A0E494B
:1093C0000B4812F009FD39460C4812F005FDB72193
:1093D000E3E72146304612F0DAFA2146BDE8F840CC
:1093E00012F016BCF8BD00BFBB0B0200DC0B020084
:1093F000290A0200ED0B0200250C02004B0C0200B2
:109400002DE9F8430F4606681446B2684B1EB2F5C4
:10941000004F34BF042108213B4010D0C7F10009A0
:1094200009EA0709494503F1FF3028BF49461842B8
:109430000CD11F46DCB900252846BDE8F8838F42D1
:1094400013D82146BDE8F84312F024BC2E494FF44E
:10945000A2732E4A2E4812F0BFFC2E4812F0BCFC1C
:109460004FF4A271294812F0B0FC9946E2E7B2EB42
:10947000D40FE0D9E319591A104612F0AEFA01469A
:10948000304612F004FB80460028D4D0B36809EBC4
:10949000C005B3F5004F34BF042308231D443544F1
:1094A0007B1E1D44B5FBF7F57D43A5EB0905294659
:1094B000304612F088FA2C44073424F00704A41B29
:1094C000804507464FEAE40408D20246414630464A
:1094D00012F017FB4146304612F058FB3946304631
:1094E00012F04FFA3844844208D2394630462246B8
:1094F00012F007FB2146304612F048FB01223946A4
:10950000304612F044FA97E7870C0200BB0B0200CA
:10951000290A0200A20C0200B2F5802F2DE9F041C9
:1095200010D2042A28D843494FF4F973424A4348D9
:1095300012F052FC424812F04FFC4FF4F9713E48D1
:1095400012F043FC0823D21ACC1D114424F0070466
:1095500021F00701091B17294FEAD1060ED8394916
:1095600040F2FB13344A354812F036FC344812F00E
:1095700033FC40F2FB11E2E70423E4E70027046038
:1095800031463046A660E76012F030FA0121421DF4
:109590008046304612F021FA9200D51DED0828448D
:1095A000B0423AD8B8F1FF3F3946A2F1100204F1B7
:1095B0001000B8BF3A4616F02BFA2A463946204624
:1095C00012F0FDF93B463A463946204612F0CEF9F4
:1095D000A6EB050820463946012212F0D8F942468A
:1095E000294612F0ECF92B463A462946204612F05D
:1095F000BDF93146204612F0E2F943463A4631467B
:10960000204612F0B3F931462046012212F0BFF98C
:109610002946BDE8F04112F0B9BA0B494FF4037383
:10962000054A064812F0D8FB054812F0D5FB4FF466
:10963000037184E7BF0C0200BB0B0200290A020081
:10964000E00C0200F90C0200220D02002DE9F84F97
:109650000446A38B08461907154612D4022803F0C6
:10966000070164D1204612F047FB88B10138042875
:1096700000F23481DFE810F05B0032018100D1009C
:10968000010101280CBF43F0100143F02001A18328
:10969000143420460EF046FC002840F09B81984987
:1096A000F023984A984812F097FB2146B0E003F067
:1096B0000702501F01281ED80020062A2768C4E987
:1096C000000014D13A4603E0E08B0130E0831268D9
:1096D000002AF9D123F0070343F002022046A283B7
:1096E00012F00AFB90B342F02002A2832EE023F096
:1096F00007039AB2F2E7042A33D123F007039AB2A0
:109700002046A28312F0F8FA10B142F02002A283A0
:10971000A38B03F00709894540F0EA80A18BCA06B4
:1097200040F14F8121F01003A38301F00701D4F829
:109730001880A38BB8F1000FB9DA0022276823F054
:109740000703C4E9002243F00103A383A38B03F0C2
:109750000709894540F0CD80002FDFD00026B246B2
:1097600044E06A4940F21B13694A674812F034FB2F
:1097700040F21B11664812F028FB49B165494FF4CD
:10978000AB73634A604812F027FB4FF4AB71F1E70B
:1097900023684BB9604940F257135D4A5A4812F0AA
:1097A0001BFB40F25711E5E723691E684EB95B4980
:1097B0004FF4AD73564A544812F00EFB4FF4AD719E
:1097C000D8E70F4688464FF00609A38B23F007031E
:1097D00043F006039BB2A383A268002A40F08B806B
:1097E000002F40F08B80002E98D0BA4643F008033B
:1097F00004F1140B5846A3830EF094FB002840F0AC
:1098000097803F49F0233F4A3F4812F0E5FA594616
:10981000434812F0E1FAF021AEE0022909D04149B3
:1098200040F25D133A4A384812F0D6FA40F25D1120
:10983000A0E7E78B4FB13C494FF4AF73344A32484D
:1098400012F0CAFA4FF4AF7194E723695E684EB91B
:10985000324940F261132E4A2B4812F0BDFA40F211
:10986000611187E7A38BB84623F0070343F0040395
:109870009BB24FF00409A383AEE7012909D02B491D
:109880004FF4B273224A204812F0A6FA4FF4B27194
:1098900070E723684BB9204940F265131C4A1A4807
:1098A00012F09AFA40F2651164E723699E684EB996
:1098B0001A494FF4B473164A134812F08DFA4FF454
:1098C000B47157E70027A38BB84623F0070343F092
:1098D00005039BB24FF00509A3837DE70B4940F2D6
:1098E0006B130B4A084812F077FA40F26B1141E70C
:1098F0000027002670E74FF0010A77E7924675E7E8
:109900001D0E0200F00D0200290A02005B3C02005D
:109910004D0D02006F0D02007B0D02009E0D020036
:10992000340E0200B50D0200CB0D0200DA0D02006C
:1099300085F31188BFF36F8FBAF1000F1ED1002F8E
:109940002FD116B120462649B0474FF02003EFF340
:10995000118583F31288BFF36F8F58460EF0D4FA47
:1099600038BB72231F4A2049204812F035FA594665
:109970001F4812F031FA72211A48FCE6A16800294A
:10998000DDD00D680029DAD043464A462046D1F89A
:1099900004A0D0471DB12B6829461D46F2E72B468F
:1099A000FAE7394643464A4620463F6812F0D0F966
:1099B000C5E758460EF0C4FAA38B23F00803A3832F
:1099C000ACE68B067FF564AE21F02003A38301F0A3
:1099D000070147E685F31188BFF36F8FBDE8F88F65
:1099E000F5990000F00D0200490E0200290A02005C
:1099F0005E0E0200F8B504460D4600F114064FF065
:109A00002003EFF3118783F31288BFF36F8F304683
:109A10000EF07AFA68B972230B4A0C490C4812F01E
:109A2000DBF931460B4812F0D7F97221064812F0E3
:109A3000CCF930460EF084FAA5613A462046BDE8DE
:109A4000F8400121FFF702BEF00D0200490E0200AE
:109A5000290A02005E0E02002DE9F04704460F4677
:109A600012F066F9051E67DB04F114094FF02003BC
:109A7000EFF3118A83F31288BFF36F8F48460EF01D
:109A800043FA804660B97223374A3849384812F0A1
:109A9000A3F94946374812F09FF97221324840E055
:109AA00048460EF04DFA4FF6FF72E38BA68B9342B9
:109AB00006F0070643D0022E13D135460133E38367
:109AC00048460EF02FFA00283FD1F023264A2A49B3
:109AD000274812F081F94946284812F07DF9F02113
:109AE000DCE7062E13D8DFE806F0092D1212090470
:109AF00009006FF085054FF00008E1E700233B60A7
:109B0000636883B9C4E9007786B13546F3E71C4939
:109B100017484FF4E4731B4A12F05EF94FF4E471F6
:109B2000184812F052F91F606760EDE752460221B3
:109B30002046FFF78BFD35462846BDE8F0876FF0DD
:109B40000A05D8E76FF00405D5E78AF31188BFF35B
:109B50006F8FB8F1000FEFD0002332463946204610
:109B600012F0F6F8E8E700BFF00D0200490E02001F
:109B7000290A02005E0E02001D0E0200340E0200D1
:109B8000DA0D02004D0D020008B54268034602F0EE
:109B90000302022A81600AD0032A4FF0000103D099
:109BA000012A0AD1596006E01868596008BD186892
:109BB00000225A6058B90020F8E7064906484523B4
:109BC000064A12F009F94521044812F0FEF811F096
:109BD000E3FAF0E75B3C0200290A0200740E02007F
:109BE00038B50D4604462022002115F011FF002251
:109BF000EB68E361AB68A3612B6823626B68A262C8
:109C000063622A6923B1591E194208BF42F001025A
:109C100022610122002104F12C0015F0CAFC48B198
:109C2000054906482E23064A12F0D6F82E2104488C
:109C300012F0CBF838BD00BFBD0E0200290A0200A9
:109C4000970E02002DE9F04F002789B0CDE90123DE
:109C5000436A04468B428846BA460597079753D312
:109C600000F114064FF02003EFF3118B83F31288F9
:109C7000BFF36F8F3046D9460EF046F958B97223BC
:109C80004A4A4B494B4812F0A7F831464A4812F06D
:109C9000A3F872215EE030460EF052F9079A2AB11D
:109CA0003946204612F079F90023079306A9204689
:109CB00012F09FF80699054641452ED32268236A83
:109CC000204613F8221003EB820A21F0030103F867
:109CD00022102168424612F0B0F8E36820609842F2
:109CE00016D0002530460EF01DF940B389F31188D7
:109CF000BFF36F8F059929B1A2690AB12046904739
:109D000000230593002DADD1504609B0BDE8F08F7A
:109D1000236943F008032361E3E718B1204612F0FA
:109D2000A6F8DFE7DDE90132134336D0039115F0E1
:109D3000F2FB039988BB30460EF0F4F868B9F023C3
:109D40001A4A1E491B4812F047F831461C4812F0C7
:109D500043F8F021154812F038F88BF31188BFF35F
:109D60006F8F04F12C00DDE901230EF0BBFB0546EB
:109D70004FF02003EFF3118983F31288BFF36F8F45
:109D800030460EF0C1F800283FF479AFB5FA85F5FA
:109D900030460EF0D5F86D09A4E7204607AB05AABA
:109DA000276812F083F805469CE700BFF00D02001B
:109DB000490E0200290A02005E0E02001D0E02007A
:109DC000340E02002DE9F0410446C36908460E46F0
:109DD000984704F1140507464FF02003EFF311886C
:109DE00083F31288BFF36F8F28460EF08DF868B9A1
:109DF0007223194A19491A4811F0EEFF29461948E9
:109E000011F0EAFF7221144811F0DFFF28460EF02E
:109E100097F833783A4643F001033370616820467F
:109E200012F00BF86060204612F0D2F828460EF0CF
:109E300079F858B9F023084A0B49094811F0CCFFCA
:109E400029460A4811F0C8FFF021DCE788F31188A1
:109E5000BFF36F8FBDE8F081F00D0200490E0200E4
:109E6000290A02005E0E02001D0E0200340E0200DE
:109E70002DE9F843044600F114074FF02003EFF3F7
:109E8000118883F31288BFF36F8F38460EF03CF8C9
:109E9000054668B97223344A3449354811F09CFFAD
:109EA0003946344811F098FF72212F4811F08DFF88
:109EB00038460EF045F82369A26813F0080F02D166
:109EC00063689A4200D9636A9B1A002B3DD0216ACD
:109ED00011F8223001EB820913F0030038D0022878
:109EE00003D151F82260B60805D1D8071DD44846E1
:109EF000E36998470646A1683246204611F09DFF67
:109F00003146A060204611F0A6FF38460EF00AF850
:109F100000BBF023144A1849154811F05DFF39467B
:109F2000164811F059FFF021BFE743F0020301F892
:109F30002230E3694846A5689847294602462046EC
:109F400011F07BFF0025A060DFE71D46A946DCE796
:109F50000546FBE788F31188BFF36F8F002D8CD186
:109F60004846BDE8F88300BFF00D0200490E02002C
:109F7000290A02005E0E02001D0E0200340E0200CD
:109F80002DE9F0410446C36908460D46984704F19F
:109F9000140607464FF02003EFF3118883F312886D
:109FA000BFF36F8F30460DF0AFFF68B97223264ABA
:109FB0002649274811F010FF3146264811F00CFFC2
:109FC0007221214811F001FF30460DF0B9FF2B78C6
:109FD0006FF300032B7023699B0705D5E268236AA2
:109FE00003EB82039D4220D12B786FF341032B704A
:109FF000D4E90231994204D13A46204611F01DFFBE
:10A00000A0603946204611F026FF30460DF08AFF49
:10A0100080B9F0230C4A10490D4811F0DDFE31469D
:10A020000E4811F0D9FEF021CBE72B6867F39F03B0
:10A030002B60EAE788F31188BFF36F8F04F12C00DF
:10A04000BDE8F0410EF00ABAF00D0200490E020020
:10A05000290A02005E0E02001D0E0200340E0200EC
:10A0600007B50DF1070014F0DBFC114B98421CD131
:10A070004FF480620F4B1049C3F8B8254FF40062CB
:10A08000C3F83C259DF807000BF0E4FC0B499DF854
:10A0900007000BF0C7FC01209DF8073098400BF03B
:10A0A000B5FC002003B05DF804FB6FF00B00F9E78E
:10A0B0000000AD0B00A002402CA0024028A10240ED
:10A0C000052370B5144D154E2C780134B4FBF3F311
:10A0D00003EB8303E41A14F061FC114A137823B1F3
:10A0E00056F82430C01A072813D90E4BD3F8141190
:10A0F00041B10021C3F81411D3F814312C700CB9FC
:10A10000012313702C7814F049FC46F82400012038
:10A1100070BD0020FCE700BF2E9D0020309800207D
:10A120002D9D00200050004048B1054B054A1B689A
:10A13000B3FBF2F35843044B43F001031847704755
:10A14000D483002040420F00000002000F2AF8B51F
:10A150000446154608461F460BD90F490F4840F2E2
:10A16000E7130F4A11F038FE40F2E7110C4811F0E6
:10A170002CFE0AF09BFF0B4EAD0001462E442046FC
:10A180002FB144F000440BF065FC3460F8BD0BF0D7
:10A190008FFC3760FAE700BFFC0E0200290A0200BC
:10A1A000CA0E020080A10240F0B583B000AF381D96
:10A1B0000BF096FE254B984244D10BF053F9041E48
:10A1C00013DA38790BF092FE6D4688B06A46204B60
:10A1D000C2E90534032342F8103F00234FF4C25173
:10A1E0001C4800F0EDFFAD4628E040F607031A4D8D
:10A1F0007C71AE68FB8074687B6814B96FF057049B
:10A20000E2E708212846154AA047041EDCDB336933
:10A21000002BF3D00122082128469847041ED3DBE7
:10A220000125387905FA00F00BF0F0FB2B46FA799E
:10A2300079793879FFF78AFF002CC5D120460C3791
:10A24000BD46F0BD6FF01204BEE700BF0000AD0BCD
:10A25000070F020048FF010084FB0100EDA200008F
:10A2600070B5049EC6F30744F5B2C6F30726304620
:10A270000AF002FF0F2C01460BD91549154840F290
:10A28000E113154A11F0A8FD40F2E111124811F056
:10A290009CFD28460BF0F6FB002201200F4BA4008A
:10A2A000E4B21A51A8400BF0B7FB30460BF0F8F8B7
:10A2B00028460BF01BFE0A4B984208D00949054876
:10A2C0007523094A11F088FD75210748DFE770BD45
:10A2D000FC0E0200290A0200CA0E020080A0024001
:10A2E0000000AD0B660F02002F0F02002DE9F743AF
:10A2F000144683681B694BB922492348CB23234A60
:10A3000011F06AFDCB21214811F05FFD0022984732
:10A3100006460028F0D1C4F3072840460AF0E0FEC4
:10A320005FFA84F941463346220E07464846FFF756
:10A330000DFF40460AF0A0FEC4F307450F2D01466D
:10A340000AD91349104840F2E113124A11F044FDB2
:10A3500040F2E1110F48D7E70F4BAD0049F0004242
:10A36000EDB25A5148460BF05DFB0C4B07F132023F
:10A37000009340463346019452000AF081FF03B037
:10A38000BDE8F083BD0E0200290A02002F0F020073
:10A39000FC0E0200CA0E020080A0024061A2000072
:10A3A00014F02FBB13B501AA14F012FB044668B1D8
:10A3B00016230E4A0E490F4811F00EFD21460E4895
:10A3C00011F00AFD1621094811F0FFFC019B5BB159
:10A3D0001723064A0949074811F0FEFC019908486D
:10A3E00011F0FAFC1721EEE702B010BD830F020056
:10A3F000BD0F0200290A0200DD0F0200F70F020064
:10A40000031002007FB570B9124B13480593022365
:10A410004FF4825104AA049311F014FE6FF015005A
:10A4200007B05DF804FB836863B90C4B0A480593D9
:10A4300002234FF4825104AA049311F003FE6FF03B
:10A440000400EDE71B681BB107B05DF804EB18478B
:10A450001846E5E71D100200F8FE01002E1002006C
:10A4600030B587B008B101B16AB9134B13480593F1
:10A4700002234FF4825104AA049311F0E3FD6FF01C
:10A48000150007B030BD84680CB1E56865B90C4BA8
:10A490000A48059302234FF4825104AA049311F051
:10A4A000D1FD6FF00400ECE741F8040BE36807B05E
:10A4B000BDE83040184700BF4C100200F8FE010014
:10A4C0002E10020030B51346044687B068B91A4B07
:10A4D0001A48059302234FF4825104AA049311F001
:10A4E000B1FD6FF0150007B030BD006860B9144BC6
:10A4F0001248059302234FF4825104AA049311F0E9
:10A50000A1FD6FF00100EEE782680AB1956865B9B8
:10A510000C4B0A48059302234FF4825104AA04937A
:10A5200011F090FD6FF00400DDE70A46AC4661686B
:10A5300007B0BDE83040604778100200F8FE010027
:10A54000891002002E1002000020014B1860704795
:10A550000000072030B50C460E4985B00291D0F8B6
:10A56000AC110546CDE9003100F1E0014FF0FF33B9
:10A5700020460CF025FC50B9012384F86430D5F84E
:10A58000A83123B1204605B0BDE83040184705B0DA
:10A5900030BD00BF3BC1010038B50C461146054631
:10A5A00011F0CDFD034638B92846044911F0C7FD26
:10A5B00003460020236038BD0120FBE76B33020017
:10A5C0002DE9F04F012381460569466885B005F500
:10A5D0005B77D7E8EF2F002A03D1C7E8E13F0029D6
:10A5E000F7D10CBF1A46002240F0B180B368B16ABF
:10A5F00005F5E4781C1F104611F026FE84425FD852
:10A60000013A00F09E80B2FA82F24FF00044D4404A
:10A6100072682046073222F00302C5F86022B16A50
:10A6200011F012FEC5F86402B36A40466343033377
:10A6300023F0030302EB4302230103EB440309333A
:10A6400023F0030303EBC403C5F858221A4408326D
:10A65000C5F854227368C5F85C42C5F850323D4BCA
:10A66000C5E9A963316800F0BDF9044630BBD9F8EB
:10A6700004A0D9F81090DAE9073409F5307B012BF2
:10A68000584608BF103C0EF05DFA0023DAF82400AB
:10A6900031494FF4806201EB8021009358462346F4
:10A6A0000EF06AFA09F52C702C490EF07FF9DAF8F1
:10A6B000140083685C682CB96FF05704002139E0FE
:10A6C000013298E74B46264ADAF81810A0470446AC
:10A6D0000028F3D1DAF8140083681B69002BEBD053
:10A6E0000122DAF81810984704460028E6D11D4BDD
:10A6F0002846C5F8A8311C4BC5F8AC311B4B039359
:10A70000D5F810320293D5F80832CDE90083D5F898
:10A710006832B26AD5F8681300F02CF904460028B4
:10A72000CCD105F1E0000CF0EFFC0028C5F8700377
:10A730000ADB0221384611F037FD204605B0BDE89E
:10A74000F08F6FF00B04B9E76FF01504B6E76FF008
:10A750007704F2E791C1010000A6002077C1010053
:10A760006BC1010071A700001FC30100D9C1010026
:10A7700013B5044640B100230122CDE90032074B56
:10A78000D0E909120CF0D0FAA36E1B6823B1E06E79
:10A7900002B0BDE81040184702B010BD6B33020094
:10A7A00013B504460846216901F55B71D1E8AF1F76
:10A7B000022910D193B1A0B10121CDE90031134696
:10A7C000D0E909120CF0B0FA074B984208BF6FF0BD
:10A7D0000B0002B010BD6FF00F00FAE76FF04C00F5
:10A7E000F7E76FF00100F4E72EF8FFFF2DE9F743DC
:10A7F00088461546066906F55B73D3E8AF3F022B22
:10A800005FD1136823B96FF0150003B0BDE8F08382
:10A810001B78002BF7D0D6F86893B9F1000F33D12D
:10A8200006F5D8774FF0FF324FF0FF3338460DF082
:10A83000B3FB30462A6801A9FFF7AEFE019C1CB9A4
:10A84000384611F0AFFCDEE705F10803A3666B693B
:10A8500084F86490E366E46360B1384611F0A2FCCA
:10A8600021463046236E2A68FFF774FE0020C8F8A0
:10A870000040CAE72022296804F1400015F083F85F
:10A88000384611F08FFCF1E730460F4911F057FCC4
:10A8900004460028B7D005F1080383666B69C063DE
:10A8A000C366002380F8643020222968403015F008
:10A8B0006AF822460121304600F03EF80028D5D043
:10A8C000A1E76FF00F00A0E76B3302002DE9F04F16
:10A8D00005460E4690460027D0F8B0A085B0AAF5F0
:10A8E000AE7421463046FDF79DFDE0B9114BA4F151
:10A8F000400B0293DAF810303246CDE90083294646
:10A900004FF0FF335846AAF5CE790CF059FA60B9EA
:10A910007023012203FB079383F86420DAF80C30DC
:10A920000BB158469847703417B105B0BDE8F08FA9
:10A930000127D6E781C301001FB5144690B18AB143
:10A94000012912D10A4B00F1E0010293D0F8AC3199
:10A95000403201934FF0FF33204600930CF030FA61
:10A9600004B010BD6FF01500FAE70020F8E700BF53
:10A9700081C301002DE9F04387B00E46DDE90E8169
:10A980001446DDE910251F4630B329B3DFF850C067
:10A9900000F1E009002D08BF65469EB9CDE90344EA
:10A9A00000F5CE742046059614F068FD03ABCDE9A2
:10A9B00000432A463B46414648460CF0CBFB07B0D5
:10A9C000BDE8F083002241460E9248462A4607B071
:10A9D000BDE8F0430CF0E8BC6FF01500EFE700BFF6
:10A9E000CDA80000F0B50E46044689B000286FD00F
:10A9F00001230246C3630023D0F89810364F40303D
:10AA000040F80C7C42F8301FCDE901334FF0FF33A2
:10AA10000093C36D14F09DF8304A06AB92E8030032
:10AA200083E8030018460CF091F80546D8B904F104
:10AA300034000CF06DF80546A8B93946284805AA37
:10AA400014F069F8054670B9059B9A6872B10C3329
:10AA5000D4F89400C4F8A03011F0C3FCC4F8D400BA
:10AA600030B96FF00B05284609B0F0BD0346EFE79B
:10AA7000D4F8940011F0B5FCC4F8D8000028F0D048
:10AA8000D4F88C30D4F8A010C4F8A8300423C4F84B
:10AA9000AC30C4F8C4300223A362124BB4F8942043
:10AAA000D4F8D470C4F8B810C4F8D010D4F890100A
:10AAB000236204F1A403A4F8B020C4F8A470C4F87D
:10AAC000C010A4F8C820C4F8BC00A661E362CAE7BD
:10AAD0006FF01505C7E700BFB310020084FF010047
:10AAE000BD1002004C00020030B5002289B00F49B1
:10AAF0000F4814F053FE002200230024CDE9062362
:10AB00000E230C4DCDE903344FF400622846CDE905
:10AB10000144094B094900940DF02CF908492846D5
:10AB200014F0FFFC204609B030BD00BF89AC000026
:10AB300048910020B88C002061AF000000AA0020DE
:10AB4000C51002002DE9F047044607464FF0010901
:10AB5000DFF8508014B93846BDE8F08794FAA4F5C0
:10AB6000B5FA85F509FA05F32E0108EB05156FEA2C
:10AB7000030A24EA03042B7B002BEBD058F80630A1
:10AB80001B694BB94644736804222846196807EAD2
:10AB90000A0700F0EFFADDE7284698470028D9D1E8
:10ABA000F0E700BF58FF01002DE9F047DFF8B8904B
:10ABB0002E4C8046A9EB04039F2B0F460BD92C4942
:10ABC00040F219132B4A2C4811F006F940F21911E2
:10ABD000284811F0FAF8294811F055FC064660B3F0
:10ABE00000252846BDE8F087237B73B12368DB6826
:10ABF0000BB12046984723681B69B3B963680422E8
:10AC00002046196800F0B6FA013610344C4518D9C0
:10AC10001B494FF49373174A174811F0DDF8194890
:10AC200011F0DAF84FF49371D2E7204698470028E4
:10AC3000E4D00AFA06F31D43E6E705464FF0010AA1
:10AC4000E4E7D1D3B8F1000FCBD0002DC8D028460F
:10AC5000FFF778FF0546002FF7D000214FF4A470CE
:10AC60000FF0E6FAF1E700BF68FF010058FF0100AE
:10AC7000FA100200CD100200290A020058980020A4
:10AC80001E1102003F11020001480DF0E7BB00BF9A
:10AC900090860020014B53F8200070478C00020082
:10ACA00008B5034608462BB1044A136000F0A8FD1E
:10ACB000002008BD6FF01500FBE700BF7482002084
:10ACC00010B5044C237813B903480DF0C7FB0123DA
:10ACD000237010BD2F9D00209086002010B50446E3
:10ACE000064811F0D0FB3CB1054BD3E8EF1F01390A
:10ACF000C3E8E21F002AF8D110BD00BF5098002021
:10AD00005498002000200146034BD3E8EF0FC3E81E
:10AD1000E21F002AF9D170475098002070B5FFF764
:10AD2000F1FF05460F4C104EB44219D90F4940F2BD
:10AD3000D1130F4A0F4811F04FF80F4811F04CF89B
:10AD400040F2D1110A4811F040F863685B792BB1E9
:10AD500023685B6813B12946204698471034E3E71F
:10AD6000F3D370BD58FF010068FF01001E110200FF
:10AD7000CD100200290A02003F11020010B5044C58
:10AD800004492046FEF72CFF034B1C6010BD00BF9A
:10AD900078850020780002004898002008B500233C
:10ADA000074A4FF400411370064A07481360074AE8
:10ADB0001360FFF775FFBDE80840FFF7DFBF00BF76
:10ADC000309D00205098002083C40100549800203A
:10ADD0000146002200230148FEF734BF7885002099
:10ADE0000148FFF745B800BF78850020024B0146B7
:10ADF0001868FFF7C5B800BF48980020014811F057
:10AE0000F4B800BF7885002070B52E4B1878002864
:10AE100057D0FFF7E5FF054640B32B4BD3E8EF1FB4
:10AE20000139C3E8E21F002AF8D1284C284EB44269
:10AE300018D9284940F2C513274A284810F0CCFFFA
:10AE4000274810F0C9FF40F2C511234810F0BDFF9C
:10AE500063685B7923B12368294620461B689847BD
:10AE60001034E4E7F4D32846FFF7C0FF1D4B1E4C17
:10AE70001B68002B19DD14F04AFC4FF47A72A0FB1A
:10AE8000020302FB0131C30B43EA4143D4E9002032
:10AE90009B1A40F2E9324FEAD13161EB0001934253
:10AEA00071F1000101D3FFF739FFD4E9003213F546
:10AEB0007A7342F10002C4E90032BDE87040FFF746
:10AEC0009DBF70BD2F9D00205498002058FF0100A9
:10AED00068FF01001E110200CD100200290A0200C5
:10AEE0003F110200509800204091002070B5154D90
:10AEF000297829BB0120FFF757FE134C134EB442AB
:10AF000017D913494FF4C473124A134810F064FF61
:10AF1000124810F061FF4FF4C4710E4810F055FF55
:10AF200063685B791BB1236820469B68984710349F
:10AF3000E5E7F5D3FFF768FF0028FBD101232B706D
:10AF400070BD00BF309D002058FF010068FF010068
:10AF50001E110200CD100200290A02003F1102005A
:10AF60002DE9F047304B314FFB1A1B090BD130490B
:10AF70004FF457732F4A304810F02EFF4FF457719B
:10AF80002C4810F022FF00210846FFF70DFE044672
:10AF900050B340F267684FF0000914F049FD274BA9
:10AFA000274A1B58136033B1264B1B68092B02DD5F
:10AFB00025480DF053FA0025DFF88CA044B1204657
:10AFC000FFF7C0FD044618B94FF0FF384FF0FF39C6
:10AFD000FFF71AFF064628B95DB942464B46504670
:10AFE0000DF080FA3546E9E74FF0FF384FF0FF39B2
:10AFF000D3E70D4D08E0F0D22B689B691BB100220E
:10B000002846114698471035BD42F4D90F494FF4F0
:10B010005473084A084810F0DFFE0D4810F0DCFEBB
:10B020004FF45471ACE700BF58FF010068FF010006
:10B030005E110200CD100200290A02000800000083
:10B040004C98002054980020908600201E11020089
:10B050003F11020013B52B4811F015FA2A4B1B784B
:10B06000002B34D04FF02003EFF3118483F31288C8
:10B07000BFF36F8F25480CF047FF68B97223244A4D
:10B080002449254810F0A8FE2049244810F0A4FEC9
:10B0900072211F4810F099FE1C480CF051FFFFF779
:10B0A000B3FE1A480CF03EFF58B9F023184A1C4969
:10B0B000194810F091FE15491A4810F08DFEF02144
:10B0C000E7E784F31188BFF36F8F02B010BD164B12
:10B0D0001B68002BF9D050B9002200231348CDE99A
:10B0E00000234FF4004200230FF036FDEDE709285E
:10B0F000EBD10E4814F05EFB0D4802B0BDE81040E5
:10B100000DF0ACB954980020309D002044980020E8
:10B11000F00D0200490E0200290A02005E0E020034
:10B120001D0E0200340E02004C98002048910020B1
:10B130009086002010B5064B04461B6898472146B0
:10B14000A0600448FEF73EFEBDE81040FFF782BF56
:10B150007482002078850020044A054B9B1AB1EBCD
:10B16000D30F34BF52F831000020704750FE010069
:10B1700058FF01000E4B10B5C31A1B110133DBB28F
:10B1800048B90C490C48DF230C4A10F025FEDF219A
:10B190000A4810F01AFE4468237143689A7101222C
:10B1A0004368196043685A71BDE81040FFF788BDD5
:10B1B00058FF0100FE110200290A0200C611020018
:10B1C0002DE9F04F8FB0C1F34A2804AF0D469146E8
:10B1D000B8607B600C0DB8F1000F66D000264FF010
:10B1E000040B4FF00A0A07F11403C7F80C80C7E9F3
:10B1F00007667E620193CDF808B0CDF800A007F194
:10B200001C0332464846F968FDF75EFEB0F5006F54
:10B2100003461CD36C468AB0D9F8041004AB2B4803
:10B220001A46C3E9050140F2FF71D9614FF400717C
:10B230001984274B42F8103F4FF4125133462548EA
:10B24000FFF7BEFFA5462C37BD46BDE8F08FC0F323
:10B250000A0804F11700184420F0070080083B603A
:10B26000FFF7B6FD68F35325044630B33B6800F1A1
:10B270001001C7E9083607F11403F961CDE900A30D
:10B28000CDF808B04846144AF96807F11C03FDF7E9
:10B290001BFE002811DA114911485923114A10F0F8
:10B2A0009BFD59210F4810F090FD04F1170020F08C
:10B2B00007008008FFF78CFD044668F353252A46F3
:10B2C00020467B68B96811F010F9BCE71E12020035
:10B2D0000400000100FF0100BFC401008A12020047
:10B2E000290A02005D1202002DE9F04F87B00446E2
:10B2F000DDE9105ADDE912690F4693469846AEB172
:10B300001021334652460020CDF80090CDF814901D
:10B31000FDF7C4FB011E0ADA1F4978231F4A2048A3
:10B3200010F05AFD78211D4810F04FFD314605F10F
:10B33000170008441B4B04F007040BF0070BE40054
:10B3400020F0070003EA412344EA8B1480081C43E1
:10B350000391FFF73DFD44EA0554054690B18EB1D7
:10B36000334652460399CDF800901030FDF796FB16
:10B37000002807DA08499223084A094810F02CFDF2
:10B380009221D0E7434622463946284607B0BDE819
:10B39000F04F11F0AAB800BF891202005D1202003E
:10B3A000290A020000FE0F000EB403B503AB53F8E8
:10B3B000042B01460448019301F0B6FC02B05DF88D
:10B3C00004EB03B0704700BFE9B30000CA0605D420
:10B3D0008B064CBF02490349FFF7E6BF704700BF29
:10B3E0006A3302003A09020038B54B6805461A680C
:10B3F000CB680C469A4202D1084611F09CF863686B
:10B40000D3E8EF2F511CC3E8E01F0028F8D1A36850
:10B410009D5463681A68E3689A4209D90549064849
:10B420007A23064A10F0D8FC7A21044810F0CDFCAB
:10B43000002038BDC2120200290A02009312020045
:10B440002DE9F04F89B09B46DDE914839DF84C70DF
:10B450000593169B04460D46179E06920493002FF3
:10B4600000F09480042F0BD99A4940F2BF139A4AF6
:10B470009A4810F0B1FC40F2BF11974810F0A5FCBB
:10B4800006F00803079311F018F806F0020A0246C6
:10B4900000284AD020469249FFF786FF8146BAF13C
:10B4A000000F08D016F0440F41D12A4620468D499E
:10B4B000FFF77AFF814406F0010353B18A4B20461F
:10B4C00053F82720894B8A49002A08BF1A46FFF7FC
:10B4D0006BFF06F00803002B55D0864B204653F82F
:10B4E00027208549FFF760FF0546069B2BB11A46CA
:10B4F00020468249FFF758FF0544BBF1000F05D0F5
:10B500005A4620467E49FFF74FFF05444D44B8F1A7
:10B51000000F4CD1049B002B61D1F30700F1D380C5
:10B5200031462046FFF752FFC7E08146B7E7754B2B
:10B5300018680028BED0744B4FF47A7A1B684FF419
:10B540006161B5FBF3F5B5FBF0F300FB13550AFBA6
:10B5500005F5B3FBF1F2B5FBF0FE4FF03C0C01FB3F
:10B56000123100FB1E55B1FBFCF30AFB05F5B5FBE0
:10B57000F0F50CFB131120460091CDE901E563497C
:10B58000FFF712FF96E706F00805AEE7BBF1010FE3
:10B5900008D1B8F1000F1CD1049B002B00F08D8066
:10B5A00000251CE0B8F1000FF6D0594812E05948C8
:10B5B00043462246584910F067F900280CDA5749EB
:10B5C00040F21923444A454810F006FC40F2192184
:10B5D00053E750483D46EBE7049B002B6AD0DFF869
:10B5E0004091DFF840A1DDF810803146B8F1100F2E
:10B5F000204628BF4FF010084FF0000BFFF7E6FE83
:10B600005D4543DC059B514620461A78FFF7CCFE8A
:10B610004FF0010B1BF0070F03D149462046FFF7FF
:10B62000C3FED84539D9059B5146204613F80B2057
:10B63000FFF7BAFE0BF1010BBBF1100FEAD14FF08F
:10B64000000B20463849FFF7AFFE5A46059B2046BF
:10B650009A5C364B995C11F0970F08BF2E22344943
:10B66000FFF7A2FE0BF1010BBBF1100F1AD01BF07C
:10B67000070F03D149462046FFF796FED8455A46A4
:10B68000E4D849462046FFF78FFEEBE749462046BF
:10B69000FFF78AFE0BF1010BB2E720462549FFF7C1
:10B6A00083FEC7E7059B43440593049BB3EB080364
:10B6B000049398D1002F7FF430AF204609B0BDE845
:10B6C000F04F10F038BF2046084A0949FFF76CFEDA
:10B6D00026E700BFF712020093120200290A0200B7
:10B6E00003130200071302009C000200F212020082
:10B6F00063220200B00002002C1302003213020089
:10B7000036130200609800205C980020101302009D
:10B7100051C50100E9B3000029CD00003B13020030
:10B720004A410200441302004A1302001F4F020064
:10B730004C130200484102002DE9F0410F884B688C
:10B7400005460C4690468E6886B0C7F382175BB1FB
:10B75000144A9B1A43F3CF01002920DB2078C0F361
:10B76000C200FFF7F9FC0346214651F8102B608810
:10B77000C2F34A22002A01EB020408BF0021002282
:10B78000C0F30B10CDE90408CDE902142846314678
:10B7900001970092FFF754FE06B0BDE8F081002348
:10B7A000E2E700BF50FE010042F20F7373B58B4217
:10B7B00028BF0B4605680446052168460D4A0FF070
:10B7C000D3FD0646636828460B225B680A4910F0E1
:10B7D000A5FE63683246694628465B6810F09EFE07
:10B7E00063681B2228465B68044910F097FE02B08C
:10B7F00070BD00BF231E02006B1302004F13020036
:10B8000000210123064A904206D8064A01B90123C5
:10B810001360054B18607047012140085B00F2E798
:10B8200040420F005C980020609800200122014BEC
:10B830001A707047319D0020014B0020196070473D
:10B84000789800200122024B02481A7010F073BE53
:10B85000329D0020E00002000148FFF7A5BF00BFB5
:10B86000E000020010B5064B0C461868FFF712FA0C
:10B870002146BDE8104003460F220248184700BF8A
:10B8800078980020E000020010B9074B187070474C
:10B89000064B1B781BB141F2883013F00BBEA4207D
:10B8A00000210EF0C5BC00BF319D0020329D00205C
:10B8B0002DE9F84380460E460424DFF870901C4FB3
:10B8C00099F8005095B90BF003FE284632464146E0
:10B8D0000BF0B0FD05460BF005FEE5B101233B7012
:10B8E00099F8003073B93046BDE8F88332464146D6
:10B8F00000200BF09FFD0546EFE72046651EFFF791
:10B90000C3FF2C4600200BF0D9FD0028EBD03B787C
:10B91000002BF2D1E7E73B78002BE4D0013C204636
:10B92000FFF7B2FF3B78002BCAD1DCE7329D002045
:10B93000319D0020034B9B681BB1481E18BF01209E
:10B94000184770477C98002010B51C46034B1146E1
:10B950001B680BB122469847204610BD7C980020FA
:10B96000024B5B6803B11847704700BF7C9800200A
:10B9700030B1044B02681A6042685A6082689A606B
:10B98000002070477C98002070B50E46154604468E
:10B9900086B000211822684614F03AF80B490C4B87
:10B9A000CDE90116ADF80C5004932CB96946204638
:10B9B00007F010FA06B070BD0122204606F0D8FE4E
:10B9C0000028F3D16FF01500F4E700BF1801020062
:10B9D00061B900000449431E0F3013F8012F8A5C3F
:10B9E00083421A70F9D17047AE130200F0B50746D2
:10B9F000264E8DB001AD0C460FCE0FC50FCE0FC534
:10BA000096E8070085E807003846002F39D0002C5B
:10BA100039D0381F0246214610344B780D781B046C
:10BA200043EA0563CD7804312B4311F8025C8C4264
:10BA300043EA052342F8043FEFD10421144C8A075E
:10BA4000036916D1C3F30742A55C1A0EA25C42EA51
:10BA50000562C3F30725655DDBB2E35C42EA05429C
:10BA600042EA032221F0030330336B4453F82C3CA9
:10BA7000534050F8042F013153402C290361DED18B
:10BA800001200DB0F0BD2046FBE700BF8CFF010098
:10BA9000AE1302002DE9F04F002703689DB002931A
:10BAA0004368DFF8BCA103938368DDE90246049391
:10BAB000C36805930369DDE904BE069343690793F0
:10BAC0008369DDE9062C0893C36998460993089BAE
:10BAD0000093CD590CAB2DBA5AF8049BDD514FEAB7
:10BAE000F223A94483EAB213009D83EA72634B44B4
:10BAF00025EA020502EA0C0985EA09052B444344BC
:10BB000086EA0B054FEA743888EAB408254006EA4D
:10BB10000B0985EA090588EAB4580437A844402F80
:10BB200003EB0E054344DE46DDF8008040F08880DC
:10BB30004FF0100A4B490A9151460AF1010A0DF1E2
:10BB4000700E0AF00F070EEB870757F8407C01F0E4
:10BB50000F094FEAB748019788EAF71801F10E0775
:10BB600007F00F070EEB870757F8407C09314FEAC3
:10BB7000F74E8EEA774ECDF82CE001F00F010DF173
:10BB8000700E0EEB81010EEB890959F840EC51F86B
:10BB9000401CBAF1400F7144DDF804E088EADE0889
:10BBA000DDF82CE041448EEA972E714405EA020844
:10BBB0004FEAF52E2CEA050787EA08078EEAB51E3C
:10BBC000DDF828808EEA756E774458F804EF49F85E
:10BBD000401C77440F4400994FEA733E394484EA8D
:10BBE0000607CDF828808EEAB30E07EA030704EAB9
:10BBF00006088EEAB35E87EA080777440F4401EB34
:10BC00000B0ECDF800C0B34622D102993944016031
:10BC100003991944049B416023448360059B33448A
:10BC2000C360069B73440361079B2B444361089BDD
:10BC300013448361099B6344C3611DB0BDE8F08F69
:10BC4000B346CDF800C0264694461C462A4640E737
:10BC5000944626462A461C4675463B466CE700BF7E
:10BC600068010200A401020010B50446C8B17022A8
:10BC7000002110F088FC0B4B0B4A0C49C4E900234F
:10BC80000B4B0C48C4E902130B4BC4E9040301201D
:10BC90000A4BA36103F17453A3F52303A3F6924364
:10BCA000E36110BD85AE67BB67E6096A72F36E3C5F
:10BCB0003AF54FA57F520E518C68059BABD9831F77
:10BCC000014910220A60704710ED00E072B6404052
:10BCD00080F31188BFF36F8F01B5FEF7F1F90028EB
:10BCE00002D0BFF34F8F30BFBDE8014062B6BFF353
:10BCF0006F8F704772B6494081F3118801B5FEF726
:10BD0000DFF9002802D0BFF34F8F20BFBDE801400C
:10BD100080F3118862B670472DE9F04781460C46E2
:10BD200000AF00294CD0D1E900126E468AB0A3685A
:10BD30006D464FF0050AA8462548C5E90723C5E921
:10BD4000050148F810AF002342464FF42151214825
:10BD5000FFF736FAD4E90312B5466369AD461E48CB
:10BD6000C5E90723C5E90501C5F810A0002342462F
:10BD70004FF421511748FFF723FAB54688B0E3691D
:10BD80006D464FF0030AA846144AC5E9052348F852
:10BD900010AF002342464FF4C2510E48FFF710FA8D
:10BDA000B546A369AD460E4AC5F810A0C5E90523FE
:10BDB000002342464FF4C2510648FFF701FAB54648
:10BDC000214648460BF0B6FBBD46BDE8F08700BFF4
:10BDD000AE14020038FF0100DD1402000C15020051
:10BDE0001B15020040B2002807DB01234109034A6A
:10BDF00000F01F00834042F82130704700E100E06E
:10BE000040B200280CDB01220649430900F01F0064
:10BE10008240203341F82320BFF34F8FBFF36F8F51
:10BE2000704700BF00E100E0054B420953F82220B3
:10BE3000012300F01F0003FA00F01040704700BF1C
:10BE400000E100E038B54B1C072B04460D460FD926
:10BE50005C23104A104911480FF0BEFF29461048D4
:10BE6000072322460FF0B8FF5C210A480FF0ADFF10
:10BE700040B20028ACBF00F160400A4A4FEA4313C9
:10BE8000DBB2ABBF00F5614000F00F0080F800337B
:10BE9000135438BD491502007F150200290A02001B
:10BEA0009A15020014ED00E030BFFFF7FDBF00BFA0
:10BEB0000B4A08B50B4B22F07F029A60BFF34F8FFD
:10BEC000BFF36F8FD3F8882022F47002C3F8882064
:10BED0000BF006FC0EF020FB00F058FC0BF04AFCC7
:10BEE0000080000000ED00E0094A0A4993680968F3
:10BEF0009867D96708494B6843F080534B6000232B
:10BF000083F31188BFF36F8F9368D86F704700BFBA
:10BF1000AC9C00207007020000ED00E018498A6820
:10BF200082F881E04FF030001044EFF3098C80E894
:10BF3000F01F202080F31288BFF36F8F114F4FF056
:10BF400000664A698A603E604FF0740414192068E4
:10BF50000D4C206092F981E0906F0023936780F38D
:10BF6000118802F1300090E8F01F8CF3098802F18B
:10BF7000000004B510F05DFFBDE80440704700000C
:10BF8000AC9C002004ED00E0889800201EF0040F17
:10BF90000CBFEFF30880EFF30980816911F8021CF0
:10BFA0000229FFD001B510F035FF01BD42F8203C59
:10BFB000009B0D4942F81C3C019B21F0010142F815
:10BFC000183C029B42F8081C42F8143C4FF0807366
:10BFD00042F8043C002383674FF43C43203A026557
:10BFE000C0F88030704700BF319300000A4B446FA7
:10BFF00098600A4B1C60436E83F30B88104681F3F4
:10C000000988002163B681F31188BFF36F8F002286
:10C010000023FDF78DF900BFAC9C0020889800201C
:10C0200001B5EFF30580A0F110004FEAC00004490C
:10C03000014409C99847BDE801400249084700008A
:10C04000ACFB0100A5C00000114B124A2DE9F041E4
:10C05000D518013DB5FBF3F5DFF83C805D430F4B90
:10C06000074608EB0304013CB4FBF3F403FB045460
:10C070000E1B30460A4913F0BEFC701942460021DF
:10C08000083E13F0C5FC7E6704F10800BDE8F081AE
:10C090000100000000000000040000000400000097
:10C0A00068FF0100044B99685869884203D003492E
:10C0B0004FF080520A607047AC9C002004ED00E015
:10C0C0002DE9F04186B006460D4600AF02244F4BE5
:10C0D0004FF482517B614E483C6107F1100210F031
:10C0E000ACFE4C4B9B6AD9067BD54B4B48484FF472
:10C0F0008251C7E9044307F1100210F09EFE11209F
:10C10000444B9B6A1A070BD5444B41487B61022381
:10C110004FF482513B6107F1100210F08EFE1220A5
:10C120003C4CA36A9B0723D5E8463D4B4FF4825114
:10C130007B61022307F110023B61354810F07DFE60
:10C14000636BA26A110612D588B06A463549304839
:10C15000C2E9051303234FF4C25142F8103F10F017
:10C160006CFEC5461EB1A36A23F08003A3621320B0
:10C17000284B9B6ADA070BD52B4B25487B610223A2
:10C180004FF482513B6107F1100210F056FE14206B
:10C19000204B9B6A9B060BD5244B1D487B610223D9
:10C1A0004FF482513B6107F1100210F046FE15205A
:10C1B000184B9A6AD60602D49A6A940713D59B6ADA
:10C1C000D90610D51A4940F263131A4A1A480FF0DB
:10C1D00003FE1A480FF000FE40F2631115480FF0FD
:10C1E000F4FD10208CE70B4B18379A6A920642BF79
:10C1F0005A6A22F400525A629A6A42F0FF029A6224
:10C2000000232B70BD46BDE8F08100BFDA150200A7
:10C2100038FF010000ED00E0F015020023160200D7
:10C22000361602004E160200641602008316020043
:10C23000EC160200B2160200290A020036170200AC
:10C240002DE9F04186B006460D4600AF0224474B6B
:10C250004FF482517B6146483C6107F1100210F0B7
:10C26000ECFD444B9B6AD9046DD5434B40484FF4D9
:10C270008251C7E9044307F1100210F0DEFD1720D8
:10C280003C4B9B6A1A050BD53C4B39487B6102231A
:10C290004FF482513B6107F1100210F0CEFD1820DF
:10C2A000344CA36A9B0523D5E846354B30487B6167
:10C2B000022307F110023B614FF4825110F0BDFDE3
:10C2C000A36BA26A100412D588B06A462D4928488B
:10C2D000C2E9051303234FF4C25142F8103F10F096
:10C2E000ACFDC5461EB1A36A23F40043A362192026
:10C2F000204B9B6A59050BD5234B1D487B610223BC
:10C300004FF482513B6107F1100210F096FD1A20A4
:10C31000184B9A6AD20518D51C4B15487B6102232D
:10C320004FF482513B6107F1100210F086FD1B2093
:10C33000104A1837936A43F47F43936200232B70AB
:10C34000BD46BDE8F08116209AE79B6A9B04EFD5B5
:10C350000F4B07487B6102234FF482513B6107F189
:10C36000100210F06AFD1C20E2E700BF9A170200DD
:10C3700038FF010000ED00E0B017020023160200B4
:10C38000C1170200DA170200EF1702000A180200B4
:10C390008316020010B586B002243E4B4FF4825142
:10C3A0003D4804AA0593049410F047FD3B4B9B6A5B
:10C3B00099016CD53A4B38484FF4825104AACDE923
:10C3C000044310F03AFD1E20344B9B6ADA010AD573
:10C3D000344B3148059302234FF4825104AA04934D
:10C3E00010F02BFD1F202D4B9B6ADB020AD5022487
:10C3F0002D4B29484FF4825104AA0593049410F060
:10C400001CFD2046254B9B6A1C030AD5274B22485E
:10C41000059302234FF4825104AA049310F00DFDFA
:10C4200021201E4B9B6A59030AD5214B1A480593BC
:10C4300002234FF4825104AA049310F0FEFC222040
:10C44000164B9B6A9A030AD51A4B1348059302238D
:10C450004FF4825104AA049310F0EFFC23200F4BF9
:10C460009B6ADB030AD5144B0B48059302234FF458
:10C47000825104AA049310F0E0FC2420074A936A36
:10C480006FEA03436FEA1343936206B010BD1D20A9
:10C490009AE700BF2218020038FF010000ED00E01B
:10C4A0003A1802004D1802006718020091180200A5
:10C4B000AF180200D4180200EE1802002DE9F04770
:10C4C0008AB0934B0546D3F804A08846164600234D
:10C4D00000AFCAF3080983F31188BFF36F8F02F02E
:10C4E0007F43B3F17F4F0ED08A494FF48B638A4A62
:10C4F0008A480FF071FC8A480FF06EFC4FF48B6194
:10C5000085480FF062FC12F00104EDD1530604D40B
:10C5100010070FD44FF001080FE0824B4FF4825107
:10C52000FB6102238048BB6107F1180210F085FC13
:10C53000710700D545464FF00008002DD4D00023E8
:10C54000FB71A9F10303092B00F2C180DFE803F0BE
:10C5500005B4B797BFBFBFBFBFBAE9464FF0020AE5
:10C56000724B07F11802FB614FF482516E48C7F815
:10C5700018A010F062FC0023654EFB71F36A9A0765
:10C580000AD56B4BC7E906A34FF48251664807F101
:10C59000180210F052FC42E0F36A002B01DA654BFE
:10C5A000F0E7F36A5B007AD5634B07F11802C7E93D
:10C5B00006A34FF482515C4810F03FFC7369AA69EE
:10C5C00043F480737361BFF34F8FBFF36F8F736951
:10C5D00032F8022C23F480737361BFF34F8FBFF3E3
:10C5E0006F8F4DF602739A4209D0B36ADBB2002B0B
:10C5F00038D00120F91DFFF763FD04460FE088B035
:10C600002B686A464D494848C2E9051303234FF495
:10C61000C25142F8103F10F010FCCD462C68FB7957
:10C62000E3B907F1080205F1200613462868696896
:10C63000083503C3B5421A46F7D17B6AB8F1000F3B
:10C6400061D0C3F3080222B96FEA53236FEA432390
:10C650007B62204607F10801FFF75EFB2837BD46E5
:10C66000BDE8F087B36A13F47F4F04D00120F91DB1
:10C67000FFF7E6FDC1E7B36AB3F5803F02D3FFF7EA
:10C6800089FEBAE72E4940F22A33234A23480FF0A5
:10C69000A3FB2C480FF0A0FB40F22A3130E72849D9
:10C6A00040F22E331C4A1D480FF096FB26480FF02F
:10C6B00093FB40F22E3123E70020F91D9BE7002079
:10C6C000F91DD5E7214BFB610223BB615CE7204AE2
:10C6D0006E461AF4F87F8AB01E4B18BF13466A469E
:10C6E0001D491148C2E90513A9F11003D3614FF4A4
:10C6F00000731384194B4FF4115142F8103F10F09E
:10C700009CFBB5468BE723F4FF7323F001039FE7FF
:10C7100000ED00E047190200B2160200290A0200EB
:10C720005A1902009819020038FF0100BB190200D3
:10C73000D2190200F3190200011A0200201A0200A5
:10C740005B3C02003C1A0200601A0200901A0200D0
:10C750002E19020019190200B41A02000400000187
:10C76000044B5A6942F010025A615A6942F48062DD
:10C770005A61704700ED00E0EFF30880EFF30981A4
:10C7800001B57246FFF79AFE01BD00BF00232021CC
:10C790000348C2180133452B82F80013F9D17047C2
:10C7A00000E100E0002080F31488BFF36F8F0020C9
:10C7B00080F30A8880F30B88FDF7F2FD00200E4914
:10C7C0000860BFF34F8F0D4880F3088800F03EF8F3
:10C7D000202080F311880A484FF40061401880F34C
:10C7E0000988EFF314800221084380F31488BFF313
:10C7F0006F8FFFF75DFB000094ED00E000DD00208F
:10C80000C0C30020BFF34F8F0549064BCA6802F42E
:10C81000E0621343CB60BFF34F8F00BFFDE700BF63
:10C8200000ED00E00400FA05002318460649D1F89F
:10C830009020C2F30722934200DB7047C1F8983082
:10C84000C1F8A0000133F6E700ED00E010B572B6C4
:10C85000002484F31388FFF7E7FF23464FF0FF30EF
:10C860000C4A03F120010133102B42F82100F8D1CA
:10C8700000234FF0FF30074A03F160010133102B12
:10C8800042F82100F8D162B6BFF34F8FBFF36F8F2C
:10C8900010BD00BF00E100E0084B9B6883420BD154
:10C8A000EFF3058343B1064B5A6842F080525A6059
:10C8B0005A6A22F400425A620DF0F4BCAC9C00208B
:10C8C00000ED00E01FB5094C094A23460121094843
:10C8D00000F02AF900230393074B0121E41A01A871
:10C8E0000193029400F044F904B010BD0000072049
:10C8F00000800020680202008888002010B50C7AB1
:10C900000B6804F01F0223F01F031A43CB6864096D
:10C9100023F01F03054943EA440343F00103C1F830
:10C920009800C1F89C20C1F8A03010BD00ED00E0D7
:10C9300080B500AF88B06A46074BC2E905300323D3
:10C9400042F8103F00234FF4C2510448FEF738FC70
:10C950006FF01500BD4680BDCB1A020018FF010024
:10C960002DE9F04F144606464FF0000987B05F4DA1
:10C9700000AF79607B68994535DAD6F80480B8F164
:10C98000000F54D0B8F11F0F1BD918F01F0F18D18A
:10C99000D6F800B01BF01F0F13D1584610F052FA12
:10C9A000824608EB0B00013810F04CFA82451FD08C
:10C9B0006FF0150A6C4688B06A464D49C2E9051AFF
:10C9C00005E06C4688B06A464A4BC2E90539032344
:10C9D00042F8103F00234FF4C2514748FEF7F0FBE6
:10C9E000A5466FF0150420461C37BD46BDE8F08F04
:10C9F0001AF1160FDED05445DCDDC5F898A0D5F845
:10CA00009C00C5F898A0D5F8A02020F01F0042F0A7
:10CA10001F08D6E900211144904201F1FF3B1ED1CD
:10CA2000D84508D131465FFA8AF010F014FA09F1BE
:10CA300001090C369EE7C5F898A0D5F89C3021F086
:10CA40001F0103F01F030B433146C5F89C30E0B2D1
:10CA500010F001FA10F1160FC3D0441CE7E7013AB9
:10CA6000D845E0B222F01F02C5F898A008D1D5F849
:10CA7000A030314603F01F031343C5F8A030E7E7A9
:10CA8000D5F8A01001F01F010A43C5F8A0203146D7
:10CA900010F0E1F910F1160FA3D0C5F898A0D5F861
:10CAA0009C203B7C08F1FF3862F304033B74D5F80B
:10CAB000A0303A7C5B0863F347123A74D6E900323F
:10CAC0001344BB6023F01F03441C4344A3EB0B033C
:10CAD000E0B223F01F0307287B6102D9FFF728FF8C
:10CAE000B8E707F10801FFF709FFB6E700ED00E03E
:10CAF000141B0200F11A020018FF01000522044B6A
:10CB0000C3F89420BFF34F8FBFF36F8F704700BF00
:10CB100000ED00E0BFF35F8F0022024BC3F89420CA
:10CB2000704700BF00ED00E038B50C4D0C462A7888
:10CB3000FFF716FF287016300FD140F21B13084A7A
:10CB4000084909480FF048F9214608480FF044F910
:10CB500040F21B1102480FF038F938BD439D002008
:10CB6000371B02005B3C0200290A02006E1B020018
:10CB70002DE9F74F314E894605464FF00008B34680
:10CB80002F4FC84502DB03B0BDE8F08FD5F804A0F5
:10CB9000BAF1000F4CD029680846019110F052F903
:10CBA000019904460AEB0100013810F04BF9844268
:10CBB0004FF01402234B15D002FB08F36FF015025F
:10CBC0004BF8032040F22B131F4A204920480FF056
:10CBD00003F949461F480FF0FFF840F22B111A489D
:10CBE0000FF0F3F814F1160F3460EBD01978A1426E
:10CBF000E8DD02FB08B0C7F89840C7F89840D7F8BE
:10CC00009C4000F10801007B64F304000871D7F830
:10CC1000A0000C79400860F347140C71D7F89C1001
:10CC200021F01F017160D7F8A01021F01F013161C0
:10CC300008F1010814360C35A3E700BF8C980020DA
:10CC400000ED00E0439D0020371B02005B3C02002A
:10CC5000290A02009A1B020038B51F4D2C68082CC7
:10CC600010D94FF4A9731D4A1D491E480FF0B4F89E
:10CC7000214608221C480FF0AFF84FF4A97117485D
:10CC80000FF0A3F80020FFF745FF184B184AC3F830
:10CC9000C020844217D1174B1C70FFF72FFF134B96
:10CCA000D3F89030C3F30723082B13D012494FF465
:10CCB000DE730A4A0B480FF08FF810480FF08CF81B
:10CCC0004FF4DE71DBE7696801EB0011FFF716FE38
:10CCD0000130DEE7002038BD74020200371B02007D
:10CCE0005B3C0200290A0200C91B020000ED00E0C3
:10CCF000AAFF4400439D0020FD1B02004D1C0200C2
:10CD000008B5024B1B689847002008BDA09800207A
:10CD1000034B044A1860937843F002039370704702
:10CD2000A0980020AC820020F0B587B007460E46E0
:10CD300014460021102268461D4612F069FE0223A7
:10CD40008DF80230054B2A4621466846CDE9047627
:10CD500001930EF035FB07B0F0BD00BF97CE010088
:10CD600008B50649064821F00701C1F1005202F555
:10CD7000E022FCF7D1FB002008BD00BF57F90020DE
:10CD800000ED0020F8B5144BD3F83021D3F834313E
:10CD9000072A1CD1023B032B02D8104AD35CB3B143
:10CDA000012600244FF050270D4D0520C7F81866C6
:10CDB000C5F8144611F027FE3046C5F8146611F088
:10CDC00022FEC5F81446C7F818460020F8BD002218
:10CDD000034BC3F81426F8E700F007207D1C02007F
:10CDE0000050004008B5044812F068FB00280CBF52
:10CDF0006FF01200002008BD5CFB01000E4B4029C3
:10CE000028BF402170B51D460C4C4618B04203F1B6
:10CE1000020304D1002305F81130074870BD0278E1
:10CE20001209A25C03F8022C10F8012B02F00F0289
:10CE3000A25C03F8012CE9E7629D0020B41C02000B
:10CE400030B503788BB0044607AD032B21D8DFE85B
:10CE500003F0021A1C1E12492846FBF7EDFA05954D
:10CE600063781E210493A3780E4A0393E3780E4857
:10CE700002932379019363790093A3790EF074FAF6
:10CE800009480BB030BD0949E6E70949E4E709491B
:10CE9000E2E70A212846084A0EF066FADFE700BFFB
:10CEA000C9070200EB070200449D0020D0070200E2
:10CEB000D7070200E1070200782F020030B50024F6
:10CEC000094D0A4B85B02846029303940BF03AFEB5
:10CED00002AB284600934FF4A3620A2304490BF0E7
:10CEE0004BFE204605B030BD80910020C51C0200DD
:10CEF00000B20020014601480BF060BF8091002085
:10CF0000037830B5012B13D0022B27D07BB90A460A
:10CF1000184B03F1100453F8045BA34242F8045B7E
:10CF2000F9D11B78137043884B731B0A8B7330BD88
:10CF30000A46104B03F1100453F8045BA34242F875
:10CF4000045BF9D11B7813704368C3F307224B735A
:10CF50001B0CCB731B0A8A730B74E8E700F11003F8
:10CF600050F8042B984241F8042BF9D103780B7048
:10CF7000DDE700BFCE1C020038B50546012D104686
:10CF8000194610D0032D1AD0052D18D00E493E2376
:10CF90000E4A0F480EF020FF0E480EF01DFF3E21F6
:10CFA0000A480EF012FF0C4811F01AF9044620B19D
:10CFB00001210C3006F09EFB2576204638BD024646
:10CFC0000B460648F0E700BF0E1D0200DF1C020002
:10CFD000290A0200531D0200B48700201887002090
:10CFE0000246002070B50B460A49D1E8EF4FC1E870
:10CFF000E50F002DF9D124B9BDE870400120FFF7FD
:10D00000BBBF01212082217604F10C0006F072FBE7
:10D01000204670BD3881002070B504460F2C0D46A7
:10D020001046194605D80D2C0DD9BDE87040FFF704
:10D03000D7BF132C07D10C4811F0D2F8044638B9E9
:10D040000024204670BD02460B4645B10748F3E771
:10D0500001210C3006F04EFB01232376F1E701207D
:10D06000BDE87040FFF788BF50880020808700200F
:10D0700070B58EB06C4606460A4D0D2E0FCD0FC40E
:10D080000FCD0FC40FCD0FC495E8030084E8030053
:10D090009DBF0EAB03EB860656F8380C02480EB067
:10D0A00070BD00BFB8FF01007B1D020038B5C3682A
:10D0B000B3F801401B786BB90F21204603F054F8F8
:10D0C000054640B9084B1A8822B96FEA04506FEA46
:10D0D0001050188038BD012102F044FF2846BDE8F9
:10D0E000384002F00FBF00BF009D002010B5084C73
:10D0F0000146052294F86F0003F0DAF938B994F884
:10D100006F000422BDE81040024903F0D1B910BD00
:10D11000008000209A1C020080B5C36800AF88B070
:10D120006A461B7806490748C2E9051303234FF4F2
:10D13000C45142F8103F0FF04EFFBD4680BD00BF06
:10D14000831D0200A0FE01007FB5064B4FF4825103
:10D1500005930223044804AA04930FF03CFF07B090
:10D160005DF804FBAB1D0200A0FE010098B501466E
:10D1700000AF0D4806F00CF90C490D4812F07DFA8D
:10D1800000280EDA6C4688B06A460A4B4FF4C2514A
:10D19000C2E905300323084842F8103F0FF01BFF97
:10D1A000A546BD4698BD00BF3C810020F882002006
:10D1B000B0920020C51D0200A0FE01000B46B0B5D4
:10D1C0000D8A00AF04462946D868FFF717FE8AB0DB
:10D1D0006A46094BC2E90750C2E9053440F20243EE
:10D1E0009384064B4FF43251054842F8103F0FF03C
:10D1F000F2FEBD46B0BD00BFE21D02000500000109
:10D20000A0FE010080B5012100AF0C3006F0D2FA7B
:10D2100088B06A46037806490648C2E90513032325
:10D220004FF4C25142F8103F0FF0D5FEBD4680BD0D
:10D23000041E0200A0FE01002DE9F041C56800AF08
:10D240002E78B6B9B5F801800F21404602F08CFF68
:10D25000044688B96C4688B06A460C4B4FF4C251FC
:10D26000C2E9053803230A4842F8103F0FF0B3FE25
:10D27000A546BD46BDE8F081EB783146437202F029
:10D2800071FE204602F03EFEF3E700BF261E0200BC
:10D29000A0FE0100B0B5C36800AF1C880121204684
:10D2A00002F062FF80B96D4688B06A46084B4FF4C1
:10D2B000C251C2E905340323064842F8103F0FF07B
:10D2C0008AFEAD46BD46B0BD02F01CFEFAE700BFC7
:10D2D0004C1E0200A0FE0100B0B5C36800AFB3F859
:10D2E00001400121204602F03FFF80B96D4688B021
:10D2F0006A46084B4FF4C251C2E90534032306487D
:10D3000042F8103F0FF067FEAD46BD46B0BD02F0DB
:10D31000F9FDFAE74C1E0200A0FE0100B0B504467C
:10D3200000AF02EBC303934203D12046FFF746FF51
:10D3300018E0104610F8085BA54219D10B8A507806
:10D34000984211D96D4688B06A460A49D461C2E94B
:10D35000051304234FF40151074842F8103F0FF022
:10D360003AFEAD46BD46B0BD084653689847F9E75A
:10D370000246D8E7701E0200A0FE01002DE9F04130
:10D380005D4800AF06F06EF8044600287CD0037EAE
:10D39000012B7CD0032B40F0A980038A032B0CD8EF
:10D3A0004FF40073554A564956480EF015FD40405B
:10D3B00080F311884FF0030002DF042104F10C0018
:10D3C00006F0F8F94588B0F80080204605F0B2FE76
:10D3D0004D4EC8F30B0326F81030238A9D4213D01C
:10D3E0006E4688B06A464949D561C2E905130423EF
:10D3F0004FF40151464842F8103F0FF0ECFDB5469E
:10D40000204606F0B1F826E0204605F093FE0F21F5
:10D4100036F8100002F0A8FE0546A0B9204605F037
:10D4200089FE6D4688B036F810306A463949C2E93F
:10D43000051303234FF4C251354842F8103F0FF053
:10D44000CAFDAD46DCE721464FEA183202F0CCFBBC
:10D45000284602F057FD304BD3F83C31A3B12F4999
:10D460002F4812F00AF900280EDA6C4688B06A4696
:10D470002C4B4FF4C251C2E905300323244842F833
:10D48000103F0FF0A8FDA546BD46BDE8F081038A18
:10D49000012B0CD840F65D23184A194919480EF0A3
:10D4A0009BFC404080F311884FF0030002DF022113
:10D4B00004F10C0006F07EF9054600780FF061FDDE
:10D4C00083070CD440F661230C4A17490D480EF02F
:10D4D00083FC404080F311884FF0030002DF0423F7
:10D4E0002146124A2878FFF719FF89E76D4688B070
:10D4F0006A460F499BE700BF3C810020921E020054
:10D50000C61E0200290A0200029D0020DF1E020042
:10D51000A0FE0100031F020000800020F88200200E
:10D52000B0920020C51D0200251F02003403020036
:10D53000531F020010B5012104460C3006F03AF9E1
:10D540002146BDE810400723014A0078FFF7E6BEF8
:10D5500054030200F8B5C5680121B5F8016000AFB9
:10D56000304602F001FE044680B96C4688B06A4637
:10D57000104B4FF4C251C2E9053603230E4842F85E
:10D58000103F0FF028FDA546BD46F8BD2B783BB9EE
:10D59000D5F80330C0F8B530D5F80730C0F8B93049
:10D5A0004FF48051201D0FF0FFFC204602F0AAFC32
:10D5B000EAE700BF4C1E0200A0FE01002DE9F8437F
:10D5C000064600AF907A8846144605F0ABFD414D03
:10D5D000854218D0A47AE846204605F0A3FD8AB01B
:10D5E0006A463D4BC2E90740C2E90536062355624B
:10D5F0004FF44251394842F8103F0FF0ECFCC54659
:10D60000BD46BDE8F883204605F094FD4FF00C09B7
:10D61000334D09FB00504388B34216D0204605F035
:10D6200089FD09FB00506C4688B06A464388D36187
:10D6300004232C492948C2E905164FF4025142F847
:10D64000103F0FF0C8FCA546DAE7274ED6F83801A0
:10D6500020B105F089FF0023C6F83831204605F0D7
:10D6600069FD0C2606FB00504368ABB1B8F1000F12
:10D6700012D1204605F05EFD012106FB00504268F4
:10D68000D2E90003127A03F01F06B1405B09DAB158
:10D6900000EB83000FF088FC204605F04BFD0C26C4
:10D6A00006FB00508368002BAAD0204605F042FDFF
:10D6B000704305F80080204605F03CFD06FB005550
:10D6C000A8680AF0CBFE9BE7C94300EB83000FF08C
:10D6D00085FCE1E71C880020671F0200A0FE010016
:10D6E000A49800209C1F02000080002038B504216F
:10D6F00004460C3006F05EF84578017822464088F2
:10D70000FFF75CFF25B1BDE8384002480AF0A6BE2D
:10D7100038BD00BF2081002038B5032104460C30FD
:10D7200006F048F8E368057822461978B0F8010059
:10D73000FFF744FF25B1BDE8384002480AF08EBE2D
:10D7400038BD00BF208100202DE9F04F87B00123B4
:10D75000D0F80C80018A98F8004000AF03EB8403F6
:10D760008B4240F28D806D468AB06A46C2E907312D
:10D77000052346484FF42151C2E90504444842F8C4
:10D78000103F0FF028FCAD461C37BD46BDE8F08FBA
:10D790006C4688B06A463F4B4FF4C251C2E9053B24
:10D7A00003233B4842F8103F0FF015FCA546013516
:10D7B00098F800309D42E7DA08EB8503B3F801B032
:10D7C0000F215846B3F8036002F0CEFC044600284F
:10D7D000DED000F1280B46B34FF02003EFF31182A7
:10D7E00083F31288BFF36F8FE3696BB1013BE36191
:10D7F00082F31188BFF36F8F204602F071F9013E6A
:10D800000AF02CFEB6B2E6E7636993B982F3118899
:10D81000BFF36F8F02234FF482511D4807F11002AE
:10D82000C7F814A03B610FF0D6FB204602F06AFB5C
:10D83000BDE7A16918688B42606108BFA06182F3EF
:10D840001188BFF36F8F4FF02002EFF3118182F345
:10D850001288BFF36F8FDA68E261C3F80C90C3F8E7
:10D860000090626A4AB9C4E9083381F31188BFF3B2
:10D870006F8F58460BF060F9BEE713606362F4E700
:10D880000025DFF814A0A94692E700BFCF1F0200D1
:10D89000A0FE0100F91F020015200200F0B583B0C0
:10D8A000C5680121B5F8016000AF304602F05CFCAC
:10D8B000044688B96C4688B06A462C4B4FF4C25176
:10D8C000C2E9053603232A4842F8103F0FF083FBD4
:10D8D000A5460C37BD46F0BD2B78061D1A2B17D177
:10D8E000C378012B28D14FF4806130460FF05CFBE8
:10D8F00042050DD4D4F8A83039463B60D4F8B03096
:10D9000020467B6003F0D0F8204602F0FBFAE0E707
:10D910002B788BB9B5F80330A4F8A630B5F80530EC
:10D92000A4F8AC30B5F80730A4F8AE306FF48071CD
:10D9300030460FF053FB14E0D6E8AF3FDB05F5D5DA
:10D940002B78202BF2D194F8B430002BEED0013B91
:10D9500084F8B4304FF42032002304F160000BF05F
:10D96000A3FA204602F090FCCEE700BF4C1E020056
:10D97000A0FE010010B5C1E900239DF808300C4657
:10D980000B7205F0D7FB0C22024B02FB00335C60EC
:10D9900010BD00BFA49800202DE9F0474FF0FF32E2
:10D9A00006464FF0FF331E480F4610F019FC0446A0
:10D9B00058B91C491C484FF485731C4A0EF00CFAE8
:10D9C0004FF4857119480EF000FA4FF0000800F18D
:10D9D0000C0A0121504605F08DFE204684F818807F
:10D9E00005F0A8FB4FF00C09114D09FB00504680D3
:10D9F000204605F09FFB09FB0050C0F80880204638
:10DA000005F098FB09FB005503215046C5F804803A
:10DA100005F0EEFE068087702046BDE8F08700BF67
:10DA20001C880020612F0200290A0200921E0200B9
:10DA3000A49800202DE9F04387B0804615460C4697
:10DA400000AF21B9FFF7A8FF044600285DD00122EE
:10DA50000021384611F0ADFD204605F06BFB0C238C
:10DA6000DFF8B49003FB00908760204605F0C0FD0E
:10DA700001462A4805F052FD4FF4A0220023384603
:10DA80000AF030FD064688B14FF4A973244A2549AF
:10DA900025480EF0A1F93246414624480EF09CF983
:10DAA000404080F311884FF0030002DF204605F06C
:10DAB00041FB0C23584319F80060F6B16D4688B05D
:10DAC0006A461B4BD661C2E9053804234FF4025164
:10DAD000184842F8103F0FF07EFA2046AD4605F098
